{
  "contractName": "Maharlikans",
  "abi": [
    {
      "inputs": [],
      "stateMutability": "nonpayable",
      "type": "constructor"
    },
    {
      "anonymous": false,
      "inputs": [
        {
          "indexed": true,
          "internalType": "address",
          "name": "owner",
          "type": "address"
        },
        {
          "indexed": true,
          "internalType": "address",
          "name": "spender",
          "type": "address"
        },
        {
          "indexed": false,
          "internalType": "uint256",
          "name": "value",
          "type": "uint256"
        }
      ],
      "name": "Approval",
      "type": "event"
    },
    {
      "anonymous": false,
      "inputs": [
        {
          "indexed": true,
          "internalType": "address",
          "name": "user",
          "type": "address"
        },
        {
          "indexed": false,
          "internalType": "uint256",
          "name": "amount",
          "type": "uint256"
        },
        {
          "indexed": false,
          "internalType": "uint256",
          "name": "index",
          "type": "uint256"
        },
        {
          "indexed": false,
          "internalType": "uint256",
          "name": "timestamp",
          "type": "uint256"
        }
      ],
      "name": "Staked",
      "type": "event"
    },
    {
      "anonymous": false,
      "inputs": [
        {
          "indexed": true,
          "internalType": "address",
          "name": "from",
          "type": "address"
        },
        {
          "indexed": true,
          "internalType": "address",
          "name": "to",
          "type": "address"
        },
        {
          "indexed": false,
          "internalType": "uint256",
          "name": "value",
          "type": "uint256"
        }
      ],
      "name": "Transfer",
      "type": "event"
    },
    {
      "inputs": [
        {
          "internalType": "address",
          "name": "owner",
          "type": "address"
        },
        {
          "internalType": "address",
          "name": "spender",
          "type": "address"
        }
      ],
      "name": "allowance",
      "outputs": [
        {
          "internalType": "uint256",
          "name": "",
          "type": "uint256"
        }
      ],
      "stateMutability": "view",
      "type": "function"
    },
    {
      "inputs": [
        {
          "internalType": "address",
          "name": "spender",
          "type": "address"
        },
        {
          "internalType": "uint256",
          "name": "amount",
          "type": "uint256"
        }
      ],
      "name": "approve",
      "outputs": [
        {
          "internalType": "bool",
          "name": "",
          "type": "bool"
        }
      ],
      "stateMutability": "nonpayable",
      "type": "function"
    },
    {
      "inputs": [
        {
          "internalType": "address",
          "name": "account",
          "type": "address"
        }
      ],
      "name": "balanceOf",
      "outputs": [
        {
          "internalType": "uint256",
          "name": "",
          "type": "uint256"
        }
      ],
      "stateMutability": "view",
      "type": "function"
    },
    {
      "inputs": [
        {
          "internalType": "uint256",
          "name": "amount",
          "type": "uint256"
        }
      ],
      "name": "burn",
      "outputs": [],
      "stateMutability": "nonpayable",
      "type": "function"
    },
    {
      "inputs": [
        {
          "internalType": "address",
          "name": "account",
          "type": "address"
        },
        {
          "internalType": "uint256",
          "name": "amount",
          "type": "uint256"
        }
      ],
      "name": "burnFrom",
      "outputs": [],
      "stateMutability": "nonpayable",
      "type": "function"
    },
    {
      "inputs": [
        {
          "internalType": "address",
          "name": "spender",
          "type": "address"
        },
        {
          "internalType": "uint256",
          "name": "subtractedValue",
          "type": "uint256"
        }
      ],
      "name": "decreaseAllowance",
      "outputs": [
        {
          "internalType": "bool",
          "name": "",
          "type": "bool"
        }
      ],
      "stateMutability": "nonpayable",
      "type": "function"
    },
    {
      "inputs": [],
      "name": "getPolls",
      "outputs": [
        {
          "internalType": "contract STRANDPolls",
          "name": "",
          "type": "address"
        }
      ],
      "stateMutability": "view",
      "type": "function"
    },
    {
      "inputs": [],
      "name": "getRoles",
      "outputs": [
        {
          "internalType": "contract STRANDRoles",
          "name": "",
          "type": "address"
        }
      ],
      "stateMutability": "view",
      "type": "function"
    },
    {
      "inputs": [
        {
          "internalType": "address",
          "name": "_staker",
          "type": "address"
        }
      ],
      "name": "hasStake",
      "outputs": [
        {
          "components": [
            {
              "internalType": "uint256",
              "name": "total_amount",
              "type": "uint256"
            },
            {
              "components": [
                {
                  "internalType": "address",
                  "name": "user",
                  "type": "address"
                },
                {
                  "internalType": "uint256",
                  "name": "amount",
                  "type": "uint256"
                },
                {
                  "internalType": "uint256",
                  "name": "since",
                  "type": "uint256"
                },
                {
                  "internalType": "uint256",
                  "name": "claimable",
                  "type": "uint256"
                }
              ],
              "internalType": "struct STRANDStakeable.Stake[]",
              "name": "stakes",
              "type": "tuple[]"
            }
          ],
          "internalType": "struct STRANDStakeable.StakingSummary",
          "name": "",
          "type": "tuple"
        }
      ],
      "stateMutability": "view",
      "type": "function"
    },
    {
      "inputs": [
        {
          "internalType": "address",
          "name": "spender",
          "type": "address"
        },
        {
          "internalType": "uint256",
          "name": "addedValue",
          "type": "uint256"
        }
      ],
      "name": "increaseAllowance",
      "outputs": [
        {
          "internalType": "bool",
          "name": "",
          "type": "bool"
        }
      ],
      "stateMutability": "nonpayable",
      "type": "function"
    },
    {
      "inputs": [],
      "name": "name",
      "outputs": [
        {
          "internalType": "string",
          "name": "",
          "type": "string"
        }
      ],
      "stateMutability": "view",
      "type": "function"
    },
    {
      "inputs": [],
      "name": "symbol",
      "outputs": [
        {
          "internalType": "string",
          "name": "",
          "type": "string"
        }
      ],
      "stateMutability": "view",
      "type": "function"
    },
    {
      "inputs": [],
      "name": "totalSupply",
      "outputs": [
        {
          "internalType": "uint256",
          "name": "",
          "type": "uint256"
        }
      ],
      "stateMutability": "view",
      "type": "function"
    },
    {
      "inputs": [
        {
          "internalType": "address",
          "name": "to",
          "type": "address"
        },
        {
          "internalType": "uint256",
          "name": "amount",
          "type": "uint256"
        }
      ],
      "name": "transfer",
      "outputs": [
        {
          "internalType": "bool",
          "name": "",
          "type": "bool"
        }
      ],
      "stateMutability": "nonpayable",
      "type": "function"
    },
    {
      "inputs": [
        {
          "internalType": "address",
          "name": "from",
          "type": "address"
        },
        {
          "internalType": "address",
          "name": "to",
          "type": "address"
        },
        {
          "internalType": "uint256",
          "name": "amount",
          "type": "uint256"
        }
      ],
      "name": "transferFrom",
      "outputs": [
        {
          "internalType": "bool",
          "name": "",
          "type": "bool"
        }
      ],
      "stateMutability": "nonpayable",
      "type": "function"
    },
    {
      "inputs": [],
      "name": "decimals",
      "outputs": [
        {
          "internalType": "uint8",
          "name": "",
          "type": "uint8"
        }
      ],
      "stateMutability": "pure",
      "type": "function"
    },
    {
      "inputs": [
        {
          "internalType": "uint256",
          "name": "rewardPeriode",
          "type": "uint256"
        },
        {
          "internalType": "uint256",
          "name": "rewardPercentage",
          "type": "uint256"
        }
      ],
      "name": "changeStakingReward",
      "outputs": [],
      "stateMutability": "nonpayable",
      "type": "function"
    },
    {
      "inputs": [
        {
          "internalType": "uint256",
          "name": "_amount",
          "type": "uint256"
        }
      ],
      "name": "stake",
      "outputs": [],
      "stateMutability": "nonpayable",
      "type": "function"
    },
    {
      "inputs": [
        {
          "internalType": "uint256",
          "name": "amount",
          "type": "uint256"
        },
        {
          "internalType": "uint256",
          "name": "stake_index",
          "type": "uint256"
        }
      ],
      "name": "withdrawStake",
      "outputs": [],
      "stateMutability": "nonpayable",
      "type": "function"
    }
  ],
  "bytecode": "0x6101406040523480156200001257600080fd5b5063211ecd5960126001806040518060400160405280600b81526020017f4d616861726c696b616e730000000000000000000000000000000000000000008152506040518060400160405280600581526020017f4d484c4b530000000000000000000000000000000000000000000000000000008152508160039080519060200190620000a192919062000913565b508060049080519060200190620000ba92919062000913565b5050503373ffffffffffffffffffffffffffffffffffffffff1660808173ffffffffffffffffffffffffffffffffffffffff16815250508360a081815250508260ff1660c08160ff168152505081151560e081151581525050801515610100811515815250506040516200012e90620009a4565b604051809103906000f0801580156200014b573d6000803e3d6000fd5b50600660006101000a81548173ffffffffffffffffffffffffffffffffffffffff021916908373ffffffffffffffffffffffffffffffffffffffff1602179055506040516200019a90620009b2565b604051809103906000f080158015620001b7573d6000803e3d6000fd5b50600560006101000a81548173ffffffffffffffffffffffffffffffffffffffff021916908373ffffffffffffffffffffffffffffffffffffffff160217905550620002086200030a60201b60201c565b505050506007600181600181540180825580915050039060005260206000209050506200024b336200023f6200068060201b60201c565b620006a760201b60201c565b6200026262093a806103e86200081f60201b60201c565b620002726200083160201b60201c565b73ffffffffffffffffffffffffffffffffffffffff1663dd517fae6040518163ffffffff1660e01b8152600401620002aa9062000a90565b6020604051808303816000875af1158015620002ca573d6000803e3d6000fd5b505050506040513d601f19601f82011682018060405250810190620002f0919062000b0d565b63ffffffff166101208163ffffffff16815250506200137a565b600560009054906101000a900473ffffffffffffffffffffffffffffffffffffffff1673ffffffffffffffffffffffffffffffffffffffff166358d0aba660016040518263ffffffff1660e01b815260040162000368919062000bf0565b600060405180830381600087803b1580156200038357600080fd5b505af115801562000398573d6000803e3d6000fd5b50505050600560009054906101000a900473ffffffffffffffffffffffffffffffffffffffff1673ffffffffffffffffffffffffffffffffffffffff166358d0aba660026040518263ffffffff1660e01b8152600401620003fa919062000cd7565b600060405180830381600087803b1580156200041557600080fd5b505af11580156200042a573d6000803e3d6000fd5b50505050600560009054906101000a900473ffffffffffffffffffffffffffffffffffffffff1673ffffffffffffffffffffffffffffffffffffffff166358d0aba660036040518263ffffffff1660e01b81526004016200048c919062000dbe565b600060405180830381600087803b158015620004a757600080fd5b505af1158015620004bc573d6000803e3d6000fd5b50505050600560009054906101000a900473ffffffffffffffffffffffffffffffffffffffff1673ffffffffffffffffffffffffffffffffffffffff166358d0aba660046040518263ffffffff1660e01b81526004016200051e919062000ea5565b600060405180830381600087803b1580156200053957600080fd5b505af11580156200054e573d6000803e3d6000fd5b50505050600560009054906101000a900473ffffffffffffffffffffffffffffffffffffffff1673ffffffffffffffffffffffffffffffffffffffff1663b2d5eae760805160016040518363ffffffff1660e01b8152600401620005b492919062000f31565b600060405180830381600087803b158015620005cf57600080fd5b505af1158015620005e4573d6000803e3d6000fd5b50505050600560009054906101000a900473ffffffffffffffffffffffffffffffffffffffff1673ffffffffffffffffffffffffffffffffffffffff1663b2d5eae760805160026040518363ffffffff1660e01b81526004016200064a92919062000f31565b600060405180830381600087803b1580156200066557600080fd5b505af11580156200067a573d6000803e3d6000fd5b50505050565b600060c051600a620006939190620010f8565b60a051620006a2919062001149565b905090565b600073ffffffffffffffffffffffffffffffffffffffff168273ffffffffffffffffffffffffffffffffffffffff160362000719576040517f08c379a00000000000000000000000000000000000000000000000000000000081526004016200071090620011fa565b60405180910390fd5b6200072d600083836200090960201b60201c565b80600260008282546200074191906200121c565b92505081905550806000808473ffffffffffffffffffffffffffffffffffffffff1673ffffffffffffffffffffffffffffffffffffffff16815260200190815260200160002060008282546200079891906200121c565b925050819055508173ffffffffffffffffffffffffffffffffffffffff16600073ffffffffffffffffffffffffffffffffffffffff167fddf252ad1be2c89b69c2b068fc378daa952ba7f163c4a11628f55a4df523b3ef83604051620007ff91906200128a565b60405180910390a36200081b600083836200090e60201b60201c565b5050565b81600a81905550806009819055505050565b6000600560009054906101000a900473ffffffffffffffffffffffffffffffffffffffff1673ffffffffffffffffffffffffffffffffffffffff166374de839c3360026040518363ffffffff1660e01b81526004016200089392919062000f31565b602060405180830381865afa158015620008b1573d6000803e3d6000fd5b505050506040513d601f19601f82011682018060405250810190620008d79190620012e4565b620008e157600080fd5b600560009054906101000a900473ffffffffffffffffffffffffffffffffffffffff16905090565b505050565b505050565b828054620009219062001345565b90600052602060002090601f01602090048101928262000945576000855562000991565b82601f106200096057805160ff191683800117855562000991565b8280016001018555821562000991579182015b828111156200099057825182559160200191906001019062000973565b5b509050620009a09190620009c0565b5090565b610d0a8062003f0983390190565b610e138062004c1383390190565b5b80821115620009db576000816000905550600101620009c1565b5090565b600082825260208201905092915050565b7f524f4c455f5354414b494e475f434f4d4d495454454500000000000000000000600082015250565b600062000a28601683620009df565b915062000a3582620009f0565b602082019050919050565b7f5374616b696e6720636f6d6d6974746565000000000000000000000000000000600082015250565b600062000a78601183620009df565b915062000a858262000a40565b602082019050919050565b6000604082019050818103600083015262000aab8162000a19565b9050818103602083015262000ac08162000a69565b9050919050565b600080fd5b600063ffffffff82169050919050565b62000ae78162000acc565b811462000af357600080fd5b50565b60008151905062000b078162000adc565b92915050565b60006020828403121562000b265762000b2562000ac7565b5b600062000b368482850162000af6565b91505092915050565b62000b4a8162000acc565b82525050565b7f4f574e4552000000000000000000000000000000000000000000000000000000600082015250565b600062000b88600583620009df565b915062000b958262000b50565b602082019050919050565b7f436f6e7472616374206f776e6572730000000000000000000000000000000000600082015250565b600062000bd8600f83620009df565b915062000be58262000ba0565b602082019050919050565b600060608201905062000c07600083018462000b3f565b818103602083015262000c1a8162000b79565b9050818103604083015262000c2f8162000bc9565b905092915050565b7f524f4c455f4d414e4147454d454e540000000000000000000000000000000000600082015250565b600062000c6f600f83620009df565b915062000c7c8262000c37565b602082019050919050565b7f526f6c65206d616e6167656d656e740000000000000000000000000000000000600082015250565b600062000cbf600f83620009df565b915062000ccc8262000c87565b602082019050919050565b600060608201905062000cee600083018462000b3f565b818103602083015262000d018162000c60565b9050818103604083015262000d168162000cb0565b905092915050565b7f454c454354494f4e5f434f4d4d49545445450000000000000000000000000000600082015250565b600062000d56601283620009df565b915062000d638262000d1e565b602082019050919050565b7f456c656374696f6e20636f6d6d69747465650000000000000000000000000000600082015250565b600062000da6601283620009df565b915062000db38262000d6e565b602082019050919050565b600060608201905062000dd5600083018462000b3f565b818103602083015262000de88162000d47565b9050818103604083015262000dfd8162000d97565b905092915050565b7f564f54494e475f434f4d4d495454454500000000000000000000000000000000600082015250565b600062000e3d601083620009df565b915062000e4a8262000e05565b602082019050919050565b7f566f74696e6720636f6d6d697474656500000000000000000000000000000000600082015250565b600062000e8d601083620009df565b915062000e9a8262000e55565b602082019050919050565b600060608201905062000ebc600083018462000b3f565b818103602083015262000ecf8162000e2e565b9050818103604083015262000ee48162000e7e565b905092915050565b600073ffffffffffffffffffffffffffffffffffffffff82169050919050565b600062000f198262000eec565b9050919050565b62000f2b8162000f0c565b82525050565b600060408201905062000f48600083018562000f20565b62000f57602083018462000b3f565b9392505050565b7f4e487b7100000000000000000000000000000000000000000000000000000000600052601160045260246000fd5b60008160011c9050919050565b6000808291508390505b600185111562000fec5780860481111562000fc45762000fc362000f5e565b5b600185161562000fd45780820291505b808102905062000fe48562000f8d565b945062000fa4565b94509492505050565b600082620010075760019050620010da565b81620010175760009050620010da565b81600181146200103057600281146200103b5762001071565b6001915050620010da565b60ff84111562001050576200104f62000f5e565b5b8360020a9150848211156200106a576200106962000f5e565b5b50620010da565b5060208310610133831016604e8410600b8410161715620010ab5782820a905083811115620010a557620010a462000f5e565b5b620010da565b620010ba848484600162000f9a565b92509050818404811115620010d457620010d362000f5e565b5b81810290505b9392505050565b6000819050919050565b600060ff82169050919050565b60006200110582620010e1565b91506200111283620010eb565b9250620011417fffffffffffffffffffffffffffffffffffffffffffffffffffffffffffffffff848462000ff5565b905092915050565b60006200115682620010e1565b91506200116383620010e1565b9250817fffffffffffffffffffffffffffffffffffffffffffffffffffffffffffffffff04831182151516156200119f576200119e62000f5e565b5b828202905092915050565b7f45524332303a206d696e7420746f20746865207a65726f206164647265737300600082015250565b6000620011e2601f83620009df565b9150620011ef82620011aa565b602082019050919050565b600060208201905081810360008301526200121581620011d3565b9050919050565b60006200122982620010e1565b91506200123683620010e1565b9250827fffffffffffffffffffffffffffffffffffffffffffffffffffffffffffffffff038211156200126e576200126d62000f5e565b5b828201905092915050565b6200128481620010e1565b82525050565b6000602082019050620012a1600083018462001279565b92915050565b60008115159050919050565b620012be81620012a7565b8114620012ca57600080fd5b50565b600081519050620012de81620012b3565b92915050565b600060208284031215620012fd57620012fc62000ac7565b5b60006200130d84828501620012cd565b91505092915050565b7f4e487b7100000000000000000000000000000000000000000000000000000000600052602260045260246000fd5b600060028204905060018216806200135e57607f821691505b60208210810362001374576200137362001316565b5b50919050565b60805160a05160c05160e0516101005161012051612b4e620013bb600039600061062001526000505060005050600050506000505060005050612b4e6000f3fe608060405234801561001057600080fd5b50600436106101215760003560e01c806370a08231116100ad578063a694fc3a11610071578063a694fc3a1461031e578063a9059cbb1461033a578063dd62ed3e1461036a578063e73e14bf1461039a578063f1fdf469146103ca57610121565b806370a0823114610266578063710613981461029657806379cc6790146102b457806395d89b41146102d0578063a457c2d7146102ee57610121565b806323b872dd116100f457806323b872dd146101b0578063313ce567146101e057806339509351146101fe57806342966c681461022e578063518f80e41461024a57610121565b806306fdde0314610126578063095ea7b314610144578063120fe89b1461017457806318160ddd14610192575b600080fd5b61012e6103e6565b60405161013b9190611c25565b60405180910390f35b61015e60048036038101906101599190611ce0565b610478565b60405161016b9190611d3b565b60405180910390f35b61017c61049b565b6040516101899190611db5565b60405180910390f35b61019a61056d565b6040516101a79190611ddf565b60405180910390f35b6101ca60048036038101906101c59190611dfa565b610577565b6040516101d79190611d3b565b60405180910390f35b6101e86105a6565b6040516101f59190611e69565b60405180910390f35b61021860048036038101906102139190611ce0565b6105af565b6040516102259190611d3b565b60405180910390f35b61024860048036038101906102439190611e84565b6105e6565b005b610264600480360381019061025f9190611eb1565b6105fa565b005b610280600480360381019061027b9190611ef1565b6106b4565b60405161028d9190611ddf565b60405180910390f35b61029e6106fc565b6040516102ab9190611f3f565b60405180910390f35b6102ce60048036038101906102c99190611ce0565b6107ce565b005b6102d86107ee565b6040516102e59190611c25565b60405180910390f35b61030860048036038101906103039190611ce0565b610880565b6040516103159190611d3b565b60405180910390f35b61033860048036038101906103339190611e84565b6108f7565b005b610354600480360381019061034f9190611ce0565b610958565b6040516103619190611d3b565b60405180910390f35b610384600480360381019061037f9190611f5a565b61097b565b6040516103919190611ddf565b60405180910390f35b6103b460048036038101906103af9190611ef1565b610a02565b6040516103c191906120f9565b60405180910390f35b6103e460048036038101906103df9190611eb1565b610c0f565b005b6060600380546103f59061214a565b80601f01602080910402602001604051908101604052809291908181526020018280546104219061214a565b801561046e5780601f106104435761010080835404028352916020019161046e565b820191906000526020600020905b81548152906001019060200180831161045157829003601f168201915b5050505050905090565b600080610483610c2c565b9050610490818585610c34565b600191505092915050565b6000600560009054906101000a900473ffffffffffffffffffffffffffffffffffffffff1673ffffffffffffffffffffffffffffffffffffffff166374de839c3360046040518363ffffffff1660e01b81526004016104fb9291906121a9565b602060405180830381865afa158015610518573d6000803e3d6000fd5b505050506040513d601f19601f8201168201806040525081019061053c91906121fe565b61054557600080fd5b600660009054906101000a900473ffffffffffffffffffffffffffffffffffffffff16905090565b6000600254905090565b600080610582610c2c565b905061058f858285610dfd565b61059a858585610e89565b60019150509392505050565b60006012905090565b6000806105ba610c2c565b90506105db8185856105cc858961097b565b6105d6919061225a565b610c34565b600191505092915050565b6105f76105f1610c2c565b82611108565b50565b6106026106fc565b73ffffffffffffffffffffffffffffffffffffffff166374de839c337f00000000000000000000000000000000000000000000000000000000000000006040518363ffffffff1660e01b815260040161065c9291906121a9565b602060405180830381865afa158015610679573d6000803e3d6000fd5b505050506040513d601f19601f8201168201806040525081019061069d91906121fe565b6106a657600080fd5b6106b082826112de565b5050565b60008060008373ffffffffffffffffffffffffffffffffffffffff1673ffffffffffffffffffffffffffffffffffffffff168152602001908152602001600020549050919050565b6000600560009054906101000a900473ffffffffffffffffffffffffffffffffffffffff1673ffffffffffffffffffffffffffffffffffffffff166374de839c3360026040518363ffffffff1660e01b815260040161075c9291906121a9565b602060405180830381865afa158015610779573d6000803e3d6000fd5b505050506040513d601f19601f8201168201806040525081019061079d91906121fe565b6107a657600080fd5b600560009054906101000a900473ffffffffffffffffffffffffffffffffffffffff16905090565b6107e0826107da610c2c565b83610dfd565b6107ea8282611108565b5050565b6060600480546107fd9061214a565b80601f01602080910402602001604051908101604052809291908181526020018280546108299061214a565b80156108765780601f1061084b57610100808354040283529160200191610876565b820191906000526020600020905b81548152906001019060200180831161085957829003601f168201915b5050505050905090565b60008061088b610c2c565b90506000610899828661097b565b9050838110156108de576040517f08c379a00000000000000000000000000000000000000000000000000000000081526004016108d590612322565b60405180910390fd5b6108eb8286868403610c34565b60019250505092915050565b610900336106b4565b811115610942576040517f08c379a00000000000000000000000000000000000000000000000000000000081526004016109399061238e565b60405180910390fd5b61094b816112f0565b6109553382611108565b50565b600080610963610c2c565b9050610970818585610e89565b600191505092915050565b6000600160008473ffffffffffffffffffffffffffffffffffffffff1673ffffffffffffffffffffffffffffffffffffffff16815260200190815260200160002060008373ffffffffffffffffffffffffffffffffffffffff1673ffffffffffffffffffffffffffffffffffffffff16815260200190815260200160002054905092915050565b610a0a611b72565b6000806040518060400160405280600081526020016007600860008873ffffffffffffffffffffffffffffffffffffffff1673ffffffffffffffffffffffffffffffffffffffff1681526020019081526020016000205481548110610a7257610a716123ae565b5b9060005260206000209060020201600101805480602002602001604051908101604052809291908181526020016000905b82821015610b4957838290600052602060002090600402016040518060800160405290816000820160009054906101000a900473ffffffffffffffffffffffffffffffffffffffff1673ffffffffffffffffffffffffffffffffffffffff1673ffffffffffffffffffffffffffffffffffffffff168152602001600182015481526020016002820154815260200160038201548152505081526020019060010190610aa3565b50505050815250905060005b816020015151811015610bfa576000610b8b83602001518381518110610b7e57610b7d6123ae565b5b6020026020010151611540565b90508083602001518381518110610ba557610ba46123ae565b5b6020026020010151606001818152505082602001518281518110610bcc57610bcb6123ae565b5b60200260200101516020015184610be3919061225a565b935050600181610bf3919061225a565b9050610b55565b50818160000181815250508092505050919050565b6000610c1b83836115ee565b9050610c273382611922565b505050565b600033905090565b600073ffffffffffffffffffffffffffffffffffffffff168373ffffffffffffffffffffffffffffffffffffffff1603610ca3576040517f08c379a0000000000000000000000000000000000000000000000000000000008152600401610c9a9061244f565b60405180910390fd5b600073ffffffffffffffffffffffffffffffffffffffff168273ffffffffffffffffffffffffffffffffffffffff1603610d12576040517f08c379a0000000000000000000000000000000000000000000000000000000008152600401610d09906124e1565b60405180910390fd5b80600160008573ffffffffffffffffffffffffffffffffffffffff1673ffffffffffffffffffffffffffffffffffffffff16815260200190815260200160002060008473ffffffffffffffffffffffffffffffffffffffff1673ffffffffffffffffffffffffffffffffffffffff168152602001908152602001600020819055508173ffffffffffffffffffffffffffffffffffffffff168373ffffffffffffffffffffffffffffffffffffffff167f8c5be1e5ebec7d5bd14f71427d1e84f3dd0314c0f7b2291e5b200ac8c7c3b92583604051610df09190611ddf565b60405180910390a3505050565b6000610e09848461097b565b90507fffffffffffffffffffffffffffffffffffffffffffffffffffffffffffffffff8114610e835781811015610e75576040517f08c379a0000000000000000000000000000000000000000000000000000000008152600401610e6c9061254d565b60405180910390fd5b610e828484848403610c34565b5b50505050565b600073ffffffffffffffffffffffffffffffffffffffff168373ffffffffffffffffffffffffffffffffffffffff1603610ef8576040517f08c379a0000000000000000000000000000000000000000000000000000000008152600401610eef906125df565b60405180910390fd5b600073ffffffffffffffffffffffffffffffffffffffff168273ffffffffffffffffffffffffffffffffffffffff1603610f67576040517f08c379a0000000000000000000000000000000000000000000000000000000008152600401610f5e90612671565b60405180910390fd5b610f72838383611a81565b60008060008573ffffffffffffffffffffffffffffffffffffffff1673ffffffffffffffffffffffffffffffffffffffff16815260200190815260200160002054905081811015610ff8576040517f08c379a0000000000000000000000000000000000000000000000000000000008152600401610fef90612703565b60405180910390fd5b8181036000808673ffffffffffffffffffffffffffffffffffffffff1673ffffffffffffffffffffffffffffffffffffffff16815260200190815260200160002081905550816000808573ffffffffffffffffffffffffffffffffffffffff1673ffffffffffffffffffffffffffffffffffffffff168152602001908152602001600020600082825461108b919061225a565b925050819055508273ffffffffffffffffffffffffffffffffffffffff168473ffffffffffffffffffffffffffffffffffffffff167fddf252ad1be2c89b69c2b068fc378daa952ba7f163c4a11628f55a4df523b3ef846040516110ef9190611ddf565b60405180910390a3611102848484611a86565b50505050565b600073ffffffffffffffffffffffffffffffffffffffff168273ffffffffffffffffffffffffffffffffffffffff1603611177576040517f08c379a000000000000000000000000000000000000000000000000000000000815260040161116e90612795565b60405180910390fd5b61118382600083611a81565b60008060008473ffffffffffffffffffffffffffffffffffffffff1673ffffffffffffffffffffffffffffffffffffffff16815260200190815260200160002054905081811015611209576040517f08c379a000000000000000000000000000000000000000000000000000000000815260040161120090612827565b60405180910390fd5b8181036000808573ffffffffffffffffffffffffffffffffffffffff1673ffffffffffffffffffffffffffffffffffffffff1681526020019081526020016000208190555081600260008282546112609190612847565b92505081905550600073ffffffffffffffffffffffffffffffffffffffff168373ffffffffffffffffffffffffffffffffffffffff167fddf252ad1be2c89b69c2b068fc378daa952ba7f163c4a11628f55a4df523b3ef846040516112c59190611ddf565b60405180910390a36112d983600084611a86565b505050565b81600a81905550806009819055505050565b60008111611333576040517f08c379a000000000000000000000000000000000000000000000000000000000815260040161132a906128c7565b60405180910390fd5b6000600860003373ffffffffffffffffffffffffffffffffffffffff1673ffffffffffffffffffffffffffffffffffffffff168152602001908152602001600020549050600073__STRANDCore____________________________636c9230db6040518163ffffffff1660e01b8152600401602060405180830381865af41580156113c2573d6000803e3d6000fd5b505050506040513d601f19601f820116820180604052508101906113e691906128fc565b9050600082036113fc576113f933611a8b565b91505b600782815481106114105761140f6123ae565b5b906000526020600020906002020160010160405180608001604052803373ffffffffffffffffffffffffffffffffffffffff1681526020018581526020018381526020016000815250908060018154018082558091505060019003906000526020600020906004020160009091909190915060008201518160000160006101000a81548173ffffffffffffffffffffffffffffffffffffffff021916908373ffffffffffffffffffffffffffffffffffffffff16021790555060208201518160010155604082015181600201556060820151816003015550503373ffffffffffffffffffffffffffffffffffffffff167fb4caaf29adda3eefee3ad552a8e85058589bf834c7466cae4ee58787f70589ed84848460405161153393929190612929565b60405180910390a2505050565b60006009548260200151600a54846040015173__STRANDCore____________________________636c9230db6040518163ffffffff1660e01b8152600401602060405180830381865af415801561159b573d6000803e3d6000fd5b505050506040513d601f19601f820116820180604052508101906115bf91906128fc565b6115c99190612847565b6115d3919061298f565b6115dd91906129c0565b6115e7919061298f565b9050919050565b600080600860003373ffffffffffffffffffffffffffffffffffffffff1673ffffffffffffffffffffffffffffffffffffffff168152602001908152602001600020549050600060078281548110611649576116486123ae565b5b9060005260206000209060020201600101848154811061166c5761166b6123ae565b5b90600052602060002090600402016040518060800160405290816000820160009054906101000a900473ffffffffffffffffffffffffffffffffffffffff1673ffffffffffffffffffffffffffffffffffffffff1673ffffffffffffffffffffffffffffffffffffffff168152602001600182015481526020016002820154815260200160038201548152505090508481602001511015611742576040517f08c379a000000000000000000000000000000000000000000000000000000000815260040161173990612a8c565b60405180910390fd5b600061174d82611540565b905085826020015161175f9190612847565b82602001818152505060008260200151036118005760078381548110611788576117876123ae565b5b906000526020600020906002020160010185815481106117ab576117aa6123ae565b5b9060005260206000209060040201600080820160006101000a81549073ffffffffffffffffffffffffffffffffffffffff0219169055600182016000905560028201600090556003820160009055505061190b565b816020015160078481548110611819576118186123ae565b5b9060005260206000209060020201600101868154811061183c5761183b6123ae565b5b90600052602060002090600402016001018190555073__STRANDCore____________________________636c9230db6040518163ffffffff1660e01b8152600401602060405180830381865af415801561189a573d6000803e3d6000fd5b505050506040513d601f19601f820116820180604052508101906118be91906128fc565b600784815481106118d2576118d16123ae565b5b906000526020600020906002020160010186815481106118f5576118f46123ae565b5b9060005260206000209060040201600201819055505b8086611917919061225a565b935050505092915050565b600073ffffffffffffffffffffffffffffffffffffffff168273ffffffffffffffffffffffffffffffffffffffff1603611991576040517f08c379a000000000000000000000000000000000000000000000000000000000815260040161198890612af8565b60405180910390fd5b61199d60008383611a81565b80600260008282546119af919061225a565b92505081905550806000808473ffffffffffffffffffffffffffffffffffffffff1673ffffffffffffffffffffffffffffffffffffffff1681526020019081526020016000206000828254611a04919061225a565b925050819055508173ffffffffffffffffffffffffffffffffffffffff16600073ffffffffffffffffffffffffffffffffffffffff167fddf252ad1be2c89b69c2b068fc378daa952ba7f163c4a11628f55a4df523b3ef83604051611a699190611ddf565b60405180910390a3611a7d60008383611a86565b5050565b505050565b505050565b600060076001816001815401808255809150500390600052602060002090505060006001600780549050611abf9190612847565b90508260078281548110611ad657611ad56123ae565b5b906000526020600020906002020160000160006101000a81548173ffffffffffffffffffffffffffffffffffffffff021916908373ffffffffffffffffffffffffffffffffffffffff16021790555080600860008573ffffffffffffffffffffffffffffffffffffffff1673ffffffffffffffffffffffffffffffffffffffff1681526020019081526020016000208190555080915050919050565b604051806040016040528060008152602001606081525090565b600081519050919050565b600082825260208201905092915050565b60005b83811015611bc6578082015181840152602081019050611bab565b83811115611bd5576000848401525b50505050565b6000601f19601f8301169050919050565b6000611bf782611b8c565b611c018185611b97565b9350611c11818560208601611ba8565b611c1a81611bdb565b840191505092915050565b60006020820190508181036000830152611c3f8184611bec565b905092915050565b600080fd5b600073ffffffffffffffffffffffffffffffffffffffff82169050919050565b6000611c7782611c4c565b9050919050565b611c8781611c6c565b8114611c9257600080fd5b50565b600081359050611ca481611c7e565b92915050565b6000819050919050565b611cbd81611caa565b8114611cc857600080fd5b50565b600081359050611cda81611cb4565b92915050565b60008060408385031215611cf757611cf6611c47565b5b6000611d0585828601611c95565b9250506020611d1685828601611ccb565b9150509250929050565b60008115159050919050565b611d3581611d20565b82525050565b6000602082019050611d506000830184611d2c565b92915050565b6000819050919050565b6000611d7b611d76611d7184611c4c565b611d56565b611c4c565b9050919050565b6000611d8d82611d60565b9050919050565b6000611d9f82611d82565b9050919050565b611daf81611d94565b82525050565b6000602082019050611dca6000830184611da6565b92915050565b611dd981611caa565b82525050565b6000602082019050611df46000830184611dd0565b92915050565b600080600060608486031215611e1357611e12611c47565b5b6000611e2186828701611c95565b9350506020611e3286828701611c95565b9250506040611e4386828701611ccb565b9150509250925092565b600060ff82169050919050565b611e6381611e4d565b82525050565b6000602082019050611e7e6000830184611e5a565b92915050565b600060208284031215611e9a57611e99611c47565b5b6000611ea884828501611ccb565b91505092915050565b60008060408385031215611ec857611ec7611c47565b5b6000611ed685828601611ccb565b9250506020611ee785828601611ccb565b9150509250929050565b600060208284031215611f0757611f06611c47565b5b6000611f1584828501611c95565b91505092915050565b6000611f2982611d82565b9050919050565b611f3981611f1e565b82525050565b6000602082019050611f546000830184611f30565b92915050565b60008060408385031215611f7157611f70611c47565b5b6000611f7f85828601611c95565b9250506020611f9085828601611c95565b9150509250929050565b611fa381611caa565b82525050565b600081519050919050565b600082825260208201905092915050565b6000819050602082019050919050565b611fde81611c6c565b82525050565b608082016000820151611ffa6000850182611fd5565b50602082015161200d6020850182611f9a565b5060408201516120206040850182611f9a565b5060608201516120336060850182611f9a565b50505050565b60006120458383611fe4565b60808301905092915050565b6000602082019050919050565b600061206982611fa9565b6120738185611fb4565b935061207e83611fc5565b8060005b838110156120af5781516120968882612039565b97506120a183612051565b925050600181019050612082565b5085935050505092915050565b60006040830160008301516120d46000860182611f9a565b50602083015184820360208601526120ec828261205e565b9150508091505092915050565b6000602082019050818103600083015261211381846120bc565b905092915050565b7f4e487b7100000000000000000000000000000000000000000000000000000000600052602260045260246000fd5b6000600282049050600182168061216257607f821691505b6020821081036121755761217461211b565b5b50919050565b61218481611c6c565b82525050565b600063ffffffff82169050919050565b6121a38161218a565b82525050565b60006040820190506121be600083018561217b565b6121cb602083018461219a565b9392505050565b6121db81611d20565b81146121e657600080fd5b50565b6000815190506121f8816121d2565b92915050565b60006020828403121561221457612213611c47565b5b6000612222848285016121e9565b91505092915050565b7f4e487b7100000000000000000000000000000000000000000000000000000000600052601160045260246000fd5b600061226582611caa565b915061227083611caa565b9250827fffffffffffffffffffffffffffffffffffffffffffffffffffffffffffffffff038211156122a5576122a461222b565b5b828201905092915050565b7f45524332303a2064656372656173656420616c6c6f77616e63652062656c6f7760008201527f207a65726f000000000000000000000000000000000000000000000000000000602082015250565b600061230c602583611b97565b9150612317826122b0565b604082019050919050565b6000602082019050818103600083015261233b816122ff565b9050919050565b7f43616e6e6f74207374616b65206d6f7265207468616e20796f75206f776e0000600082015250565b6000612378601e83611b97565b915061238382612342565b602082019050919050565b600060208201905081810360008301526123a78161236b565b9050919050565b7f4e487b7100000000000000000000000000000000000000000000000000000000600052603260045260246000fd5b7f45524332303a20617070726f76652066726f6d20746865207a65726f2061646460008201527f7265737300000000000000000000000000000000000000000000000000000000602082015250565b6000612439602483611b97565b9150612444826123dd565b604082019050919050565b600060208201905081810360008301526124688161242c565b9050919050565b7f45524332303a20617070726f766520746f20746865207a65726f20616464726560008201527f7373000000000000000000000000000000000000000000000000000000000000602082015250565b60006124cb602283611b97565b91506124d68261246f565b604082019050919050565b600060208201905081810360008301526124fa816124be565b9050919050565b7f45524332303a20696e73756666696369656e7420616c6c6f77616e6365000000600082015250565b6000612537601d83611b97565b915061254282612501565b602082019050919050565b600060208201905081810360008301526125668161252a565b9050919050565b7f45524332303a207472616e736665722066726f6d20746865207a65726f20616460008201527f6472657373000000000000000000000000000000000000000000000000000000602082015250565b60006125c9602583611b97565b91506125d48261256d565b604082019050919050565b600060208201905081810360008301526125f8816125bc565b9050919050565b7f45524332303a207472616e7366657220746f20746865207a65726f206164647260008201527f6573730000000000000000000000000000000000000000000000000000000000602082015250565b600061265b602383611b97565b9150612666826125ff565b604082019050919050565b6000602082019050818103600083015261268a8161264e565b9050919050565b7f45524332303a207472616e7366657220616d6f756e742065786365656473206260008201527f616c616e63650000000000000000000000000000000000000000000000000000602082015250565b60006126ed602683611b97565b91506126f882612691565b604082019050919050565b6000602082019050818103600083015261271c816126e0565b9050919050565b7f45524332303a206275726e2066726f6d20746865207a65726f2061646472657360008201527f7300000000000000000000000000000000000000000000000000000000000000602082015250565b600061277f602183611b97565b915061278a82612723565b604082019050919050565b600060208201905081810360008301526127ae81612772565b9050919050565b7f45524332303a206275726e20616d6f756e7420657863656564732062616c616e60008201527f6365000000000000000000000000000000000000000000000000000000000000602082015250565b6000612811602283611b97565b915061281c826127b5565b604082019050919050565b6000602082019050818103600083015261284081612804565b9050919050565b600061285282611caa565b915061285d83611caa565b9250828210156128705761286f61222b565b5b828203905092915050565b7f43616e6e6f74207374616b65206e6f7468696e67000000000000000000000000600082015250565b60006128b1601483611b97565b91506128bc8261287b565b602082019050919050565b600060208201905081810360008301526128e0816128a4565b9050919050565b6000815190506128f681611cb4565b92915050565b60006020828403121561291257612911611c47565b5b6000612920848285016128e7565b91505092915050565b600060608201905061293e6000830186611dd0565b61294b6020830185611dd0565b6129586040830184611dd0565b949350505050565b7f4e487b7100000000000000000000000000000000000000000000000000000000600052601260045260246000fd5b600061299a82611caa565b91506129a583611caa565b9250826129b5576129b4612960565b5b828204905092915050565b60006129cb82611caa565b91506129d683611caa565b9250817fffffffffffffffffffffffffffffffffffffffffffffffffffffffffffffffff0483118215151615612a0f57612a0e61222b565b5b828202905092915050565b7f5374616b696e673a2043616e6e6f74207769746864726177206d6f726520746860008201527f616e20796f752068617665207374616b65640000000000000000000000000000602082015250565b6000612a76603283611b97565b9150612a8182612a1a565b604082019050919050565b60006020820190508181036000830152612aa581612a69565b9050919050565b7f45524332303a206d696e7420746f20746865207a65726f206164647265737300600082015250565b6000612ae2601f83611b97565b9150612aed82612aac565b602082019050919050565b60006020820190508181036000830152612b1181612ad5565b905091905056fea264697066735822122096465fb1931215fce0648d4f52f257fa6e9c9afef18a1528880e454edea6a85264736f6c634300080d003360806040526000600160006101000a81548163ffffffff021916908363ffffffff16021790555034801561003257600080fd5b50610cc8806100426000396000f3fe608060405234801561001057600080fd5b50600436106100365760003560e01c806317b934a81461003b578063a8038e361461006b575b600080fd5b61005560048036038101906100509190610695565b61009b565b604051610062919061087b565b60405180910390f35b610085600480360381019061008091906109fe565b6102b8565b6040516100929190610ac0565b60405180910390f35b6100a361053b565b6000808363ffffffff1663ffffffff168152602001908152602001600020604051806101000160405290816000820160009054906101000a900463ffffffff1663ffffffff1663ffffffff1681526020016000820160049054906101000a900473ffffffffffffffffffffffffffffffffffffffff1673ffffffffffffffffffffffffffffffffffffffff1673ffffffffffffffffffffffffffffffffffffffff1681526020016000820160189054906101000a900463ffffffff1663ffffffff1663ffffffff16815260200160018201805461017f90610b0a565b80601f01602080910402602001604051908101604052809291908181526020018280546101ab90610b0a565b80156101f85780601f106101cd576101008083540402835291602001916101f8565b820191906000526020600020905b8154815290600101906020018083116101db57829003601f168201915b5050505050815260200160028201805461021190610b0a565b80601f016020809104026020016040519081016040528092919081815260200182805461023d90610b0a565b801561028a5780601f1061025f5761010080835404028352916020019161028a565b820191906000526020600020905b81548152906001019060200180831161026d57829003601f168201915b5050505050815260200160038201548152602001600482015481526020016005820154815250509050919050565b60006001600081819054906101000a900463ffffffff16809291906102dc90610b6a565b91906101000a81548163ffffffff021916908363ffffffff160217905550506000600160009054906101000a900463ffffffff1690506040518061010001604052808263ffffffff1681526020013373ffffffffffffffffffffffffffffffffffffffff1681526020018863ffffffff16815260200187815260200186815260200185815260200184815260200173__STRANDCore____________________________636c9230db6040518163ffffffff1660e01b8152600401602060405180830381865af41580156103b3573d6000803e3d6000fd5b505050506040513d601f19601f820116820180604052508101906103d79190610bab565b8152506000808363ffffffff1663ffffffff16815260200190815260200160002060008201518160000160006101000a81548163ffffffff021916908363ffffffff16021790555060208201518160000160046101000a81548173ffffffffffffffffffffffffffffffffffffffff021916908373ffffffffffffffffffffffffffffffffffffffff16021790555060408201518160000160186101000a81548163ffffffff021916908363ffffffff16021790555060608201518160010190805190602001906104a99291906105a2565b5060808201518160020190805190602001906104c69291906105a2565b5060a0820151816003015560c0820151816004015560e082015181600501559050508063ffffffff167ff60c2e3b713d9b2bca14a8400cd049feba15f064ee529af83996ca78acbd6da78888888888604051610526959493929190610c31565b60405180910390a28091505095945050505050565b604051806101000160405280600063ffffffff168152602001600073ffffffffffffffffffffffffffffffffffffffff168152602001600063ffffffff16815260200160608152602001606081526020016000815260200160008152602001600081525090565b8280546105ae90610b0a565b90600052602060002090601f0160209004810192826105d05760008555610617565b82601f106105e957805160ff1916838001178555610617565b82800160010185558215610617579182015b828111156106165782518255916020019190600101906105fb565b5b5090506106249190610628565b5090565b5b80821115610641576000816000905550600101610629565b5090565b6000604051905090565b600080fd5b600080fd5b600063ffffffff82169050919050565b61067281610659565b811461067d57600080fd5b50565b60008135905061068f81610669565b92915050565b6000602082840312156106ab576106aa61064f565b5b60006106b984828501610680565b91505092915050565b6106cb81610659565b82525050565b600073ffffffffffffffffffffffffffffffffffffffff82169050919050565b60006106fc826106d1565b9050919050565b61070c816106f1565b82525050565b600081519050919050565b600082825260208201905092915050565b60005b8381101561074c578082015181840152602081019050610731565b8381111561075b576000848401525b50505050565b6000601f19601f8301169050919050565b600061077d82610712565b610787818561071d565b935061079781856020860161072e565b6107a081610761565b840191505092915050565b6000819050919050565b6107be816107ab565b82525050565b6000610100830160008301516107dd60008601826106c2565b5060208301516107f06020860182610703565b50604083015161080360408601826106c2565b506060830151848203606086015261081b8282610772565b915050608083015184820360808601526108358282610772565b91505060a083015161084a60a08601826107b5565b5060c083015161085d60c08601826107b5565b5060e083015161087060e08601826107b5565b508091505092915050565b6000602082019050818103600083015261089581846107c4565b905092915050565b600080fd5b600080fd5b7f4e487b7100000000000000000000000000000000000000000000000000000000600052604160045260246000fd5b6108df82610761565b810181811067ffffffffffffffff821117156108fe576108fd6108a7565b5b80604052505050565b6000610911610645565b905061091d82826108d6565b919050565b600067ffffffffffffffff82111561093d5761093c6108a7565b5b61094682610761565b9050602081019050919050565b82818337600083830152505050565b600061097561097084610922565b610907565b905082815260208101848484011115610991576109906108a2565b5b61099c848285610953565b509392505050565b600082601f8301126109b9576109b861089d565b5b81356109c9848260208601610962565b91505092915050565b6109db816107ab565b81146109e657600080fd5b50565b6000813590506109f8816109d2565b92915050565b600080600080600060a08688031215610a1a57610a1961064f565b5b6000610a2888828901610680565b955050602086013567ffffffffffffffff811115610a4957610a48610654565b5b610a55888289016109a4565b945050604086013567ffffffffffffffff811115610a7657610a75610654565b5b610a82888289016109a4565b9350506060610a93888289016109e9565b9250506080610aa4888289016109e9565b9150509295509295909350565b610aba81610659565b82525050565b6000602082019050610ad56000830184610ab1565b92915050565b7f4e487b7100000000000000000000000000000000000000000000000000000000600052602260045260246000fd5b60006002820490506001821680610b2257607f821691505b602082108103610b3557610b34610adb565b5b50919050565b7f4e487b7100000000000000000000000000000000000000000000000000000000600052601160045260246000fd5b6000610b7582610659565b915063ffffffff8203610b8b57610b8a610b3b565b5b600182019050919050565b600081519050610ba5816109d2565b92915050565b600060208284031215610bc157610bc061064f565b5b6000610bcf84828501610b96565b91505092915050565b600082825260208201905092915050565b6000610bf482610712565b610bfe8185610bd8565b9350610c0e81856020860161072e565b610c1781610761565b840191505092915050565b610c2b816107ab565b82525050565b600060a082019050610c466000830188610ab1565b8181036020830152610c588187610be9565b90508181036040830152610c6c8186610be9565b9050610c7b6060830185610c22565b610c886080830184610c22565b969550505050505056fea264697066735822122072d41a6be72f4988f7ed34a9e6374d8a32935e1e1f23933da22f9ebad301d32564736f6c634300080d003360806040526000600260006101000a81548163ffffffff021916908363ffffffff16021790555034801561003257600080fd5b50610dd1806100426000396000f3fe608060405234801561001057600080fd5b50600436106100625760003560e01c80632a9849611461006757806358d0aba61461008357806374de839c1461009f578063b0df0cf1146100cf578063b2d5eae7146100eb578063dd517fae14610107575b600080fd5b610081600480360381019061007c91906108b7565b610137565b005b61009d60048036038101906100989190610a2a565b610192565b005b6100b960048036038101906100b49190610b13565b61023a565b6040516100c69190610b6e565b60405180910390f35b6100e960048036038101906100e49190610b13565b61033e565b005b61010560048036038101906101009190610b13565b6105d6565b005b610121600480360381019061011c9190610b89565b610665565b60405161012e9190610c10565b60405180910390f35b6000808263ffffffff1663ffffffff168152602001908152602001600020600080820160006101000a81549063ffffffff021916905560018201600061017d91906106d4565b60028201600061018d91906106d4565b505050565b60405180606001604052808463ffffffff168152602001838152602001828152506000808563ffffffff1663ffffffff16815260200190815260200160002060008201518160000160006101000a81548163ffffffff021916908363ffffffff1602179055506020820151816001019080519060200190610214929190610714565b506040820151816002019080519060200190610231929190610714565b50905050505050565b6000806000905060005b600160008673ffffffffffffffffffffffffffffffffffffffff1673ffffffffffffffffffffffffffffffffffffffff16815260200190815260200160002080549050811015610333578363ffffffff16600160008773ffffffffffffffffffffffffffffffffffffffff1673ffffffffffffffffffffffffffffffffffffffff16815260200190815260200160002082815481106102e6576102e5610c2b565b5b90600052602060002090600891828204019190066004029054906101000a900463ffffffff1663ffffffff16036103205760019150610333565b808061032b90610c93565b915050610244565b508091505092915050565b600060018060008573ffffffffffffffffffffffffffffffffffffffff1673ffffffffffffffffffffffffffffffffffffffff1681526020019081526020016000208054905061038e9190610cdb565b67ffffffffffffffff8111156103a7576103a66108ff565b5b6040519080825280602002602001820160405280156103d55781602001602082028036833780820191505090505b5090506000805b600160008673ffffffffffffffffffffffffffffffffffffffff1673ffffffffffffffffffffffffffffffffffffffff1681526020019081526020016000208054905081101561057b578363ffffffff16600160008773ffffffffffffffffffffffffffffffffffffffff1673ffffffffffffffffffffffffffffffffffffffff168152602001908152602001600020828154811061047e5761047d610c2b565b5b90600052602060002090600891828204019190066004029054906101000a900463ffffffff1663ffffffff161461056857600160008673ffffffffffffffffffffffffffffffffffffffff1673ffffffffffffffffffffffffffffffffffffffff1681526020019081526020016000208181548110610500576104ff610c2b565b5b90600052602060002090600891828204019190066004029054906101000a900463ffffffff16838363ffffffff168151811061053f5761053e610c2b565b5b602002602001019063ffffffff16908163ffffffff1681525050818061056490610d0f565b9250505b808061057390610c93565b9150506103dc565b5081600160008673ffffffffffffffffffffffffffffffffffffffff1673ffffffffffffffffffffffffffffffffffffffff16815260200190815260200160002090805190602001906105cf92919061079a565b5050505050565b600160008373ffffffffffffffffffffffffffffffffffffffff1673ffffffffffffffffffffffffffffffffffffffff1681526020019081526020016000208190806001815401808255809150506001900390600052602060002090600891828204019190066004029091909190916101000a81548163ffffffff021916908363ffffffff1602179055505050565b60006002600081819054906101000a900463ffffffff168092919061068990610d0f565b91906101000a81548163ffffffff021916908363ffffffff160217905550506000600260009054906101000a900463ffffffff1690506106ca818585610192565b8091505092915050565b5080546106e090610d6a565b6000825580601f106106f25750610711565b601f016020900490600052602060002090810190610710919061084a565b5b50565b82805461072090610d6a565b90600052602060002090601f0160209004810192826107425760008555610789565b82601f1061075b57805160ff1916838001178555610789565b82800160010185558215610789579182015b8281111561078857825182559160200191906001019061076d565b5b509050610796919061084a565b5090565b828054828255906000526020600020906007016008900481019282156108395791602002820160005b8382111561080757835183826101000a81548163ffffffff021916908363ffffffff16021790555092602001926004016020816003010492830192600103026107c3565b80156108375782816101000a81549063ffffffff0219169055600401602081600301049283019260010302610807565b505b509050610846919061084a565b5090565b5b8082111561086357600081600090555060010161084b565b5090565b6000604051905090565b600080fd5b600080fd5b600063ffffffff82169050919050565b6108948161087b565b811461089f57600080fd5b50565b6000813590506108b18161088b565b92915050565b6000602082840312156108cd576108cc610871565b5b60006108db848285016108a2565b91505092915050565b600080fd5b600080fd5b6000601f19601f8301169050919050565b7f4e487b7100000000000000000000000000000000000000000000000000000000600052604160045260246000fd5b610937826108ee565b810181811067ffffffffffffffff82111715610956576109556108ff565b5b80604052505050565b6000610969610867565b9050610975828261092e565b919050565b600067ffffffffffffffff821115610995576109946108ff565b5b61099e826108ee565b9050602081019050919050565b82818337600083830152505050565b60006109cd6109c88461097a565b61095f565b9050828152602081018484840111156109e9576109e86108e9565b5b6109f48482856109ab565b509392505050565b600082601f830112610a1157610a106108e4565b5b8135610a218482602086016109ba565b91505092915050565b600080600060608486031215610a4357610a42610871565b5b6000610a51868287016108a2565b935050602084013567ffffffffffffffff811115610a7257610a71610876565b5b610a7e868287016109fc565b925050604084013567ffffffffffffffff811115610a9f57610a9e610876565b5b610aab868287016109fc565b9150509250925092565b600073ffffffffffffffffffffffffffffffffffffffff82169050919050565b6000610ae082610ab5565b9050919050565b610af081610ad5565b8114610afb57600080fd5b50565b600081359050610b0d81610ae7565b92915050565b60008060408385031215610b2a57610b29610871565b5b6000610b3885828601610afe565b9250506020610b49858286016108a2565b9150509250929050565b60008115159050919050565b610b6881610b53565b82525050565b6000602082019050610b836000830184610b5f565b92915050565b60008060408385031215610ba057610b9f610871565b5b600083013567ffffffffffffffff811115610bbe57610bbd610876565b5b610bca858286016109fc565b925050602083013567ffffffffffffffff811115610beb57610bea610876565b5b610bf7858286016109fc565b9150509250929050565b610c0a8161087b565b82525050565b6000602082019050610c256000830184610c01565b92915050565b7f4e487b7100000000000000000000000000000000000000000000000000000000600052603260045260246000fd5b7f4e487b7100000000000000000000000000000000000000000000000000000000600052601160045260246000fd5b6000819050919050565b6000610c9e82610c89565b91507fffffffffffffffffffffffffffffffffffffffffffffffffffffffffffffffff8203610cd057610ccf610c5a565b5b600182019050919050565b6000610ce682610c89565b9150610cf183610c89565b925082821015610d0457610d03610c5a565b5b828203905092915050565b6000610d1a8261087b565b915063ffffffff8203610d3057610d2f610c5a565b5b600182019050919050565b7f4e487b7100000000000000000000000000000000000000000000000000000000600052602260045260246000fd5b60006002820490506001821680610d8257607f821691505b602082108103610d9557610d94610d3b565b5b5091905056fea264697066735822122011274b0b04681b93e94df895fc3b0c1a943345d5dcb3de6b322ca7107c94315264736f6c634300080d0033",
  "immutableReferences": {
    "767": [
      {
        "length": 32,
        "start": 1568
      }
    ]
  },
  "source": "// SPDX-License-Identifier: MIT\r\npragma solidity >=0.8.0 <0.9.0;\r\n\r\nimport \"../../@openzeppelin/contracts/token/ERC20/extensions/ERC20Burnable.sol\";\r\nimport \"../STRANDProduction/STRANDGovernmentalToken.sol\";\r\nimport \"../STRANDProduction/STRANDStakeable.sol\";\r\n\r\ncontract Maharlikans is ERC20Burnable, STRANDGovernmentalToken, STRANDStakeable {\r\n\r\n    uint32 private immutable ROLE_STAKING_COMMITTEE;\r\n\r\n    constructor() ERC20(\"Maharlikans\", \"MHLKS\")\r\n                  STRANDGovernmentalToken(555666777, 18, true, true)\r\n                  STRANDStakeable() {\r\n        _mint(msg.sender, initialSupply());\r\n        _setStakingReward(1 weeks, 1000);\r\n        ROLE_STAKING_COMMITTEE = getRoles().addRole(\"ROLE_STAKING_COMMITTEE\", \"Staking committee\");\r\n    }\r\n\r\n    function decimals() override public pure returns (uint8) {\r\n        return 18;\r\n    }\r\n\r\n    // ----------------------------------- STAKING FUNCTIONS -----------------------------------\r\n    modifier roleStakingCommittee {\r\n        require(getRoles().hasRoleAssigned(msg.sender, ROLE_STAKING_COMMITTEE));\r\n        _;\r\n    }\r\n    /**\r\n    * @notice changing staking rewards. this takes immediatley effect.\r\n    * this is limited to the members of the staking committee\r\n     */\r\n    function changeStakingReward(uint rewardPeriode, uint256 rewardPercentage) public roleStakingCommittee {\r\n        _setStakingReward(rewardPeriode, rewardPercentage);\r\n    }\r\n    /**\r\n    * @notice stake is used to stake a particular amount of tokens\r\n     */\r\n    function stake(uint256 _amount) public {\r\n        // Make sure staker actually is good for it\r\n        require(_amount <= balanceOf(msg.sender), \"Cannot stake more than you own\");\r\n        _stake(_amount);\r\n        // Burn the amount of tokens on the sender\r\n        _burn(msg.sender, _amount);\r\n    }\r\n    /**\r\n    * @notice withdrawStake is used to withdraw stakes from the account holder\r\n     */\r\n    function withdrawStake(uint256 amount, uint256 stake_index) public {\r\n        uint256 amount_to_mint = _withdrawStake(amount, stake_index);\r\n        // Return staked tokens to user\r\n        _mint(msg.sender, amount_to_mint);\r\n    }\r\n}",
  "sourcePath": "d:\\BlockchainDev\\Source\\SolidityContracts\\contracts\\Maharlikans\\Maharlikans.sol",
  "compiler": {
    "name": "solc",
    "version": "0.8.13+commit.abaa5c0e.Emscripten.clang"
  },
  "schemaVersion": "3.4.7",
  "updatedAt": "2022-05-10T09:45:45.969Z",
  "devdoc": {
    "kind": "dev",
    "methods": {
      "allowance(address,address)": {
        "details": "See {IERC20-allowance}."
      },
      "approve(address,uint256)": {
        "details": "See {IERC20-approve}. NOTE: If `amount` is the maximum `uint256`, the allowance is not updated on `transferFrom`. This is semantically equivalent to an infinite approval. Requirements: - `spender` cannot be the zero address."
      },
      "balanceOf(address)": {
        "details": "See {IERC20-balanceOf}."
      },
      "burn(uint256)": {
        "details": "Destroys `amount` tokens from the caller. See {ERC20-_burn}."
      },
      "burnFrom(address,uint256)": {
        "details": "Destroys `amount` tokens from `account`, deducting from the caller's allowance. See {ERC20-_burn} and {ERC20-allowance}. Requirements: - the caller must have allowance for ``accounts``'s tokens of at least `amount`."
      },
      "decimals()": {
        "details": "Returns the number of decimals used to get its user representation. For example, if `decimals` equals `2`, a balance of `505` tokens should be displayed to a user as `5.05` (`505 / 10 ** 2`). Tokens usually opt for a value of 18, imitating the relationship between Ether and Wei. This is the value {ERC20} uses, unless this function is overridden; NOTE: This information is only used for _display_ purposes: it in no way affects any of the arithmetic of the contract, including {IERC20-balanceOf} and {IERC20-transfer}."
      },
      "decreaseAllowance(address,uint256)": {
        "details": "Atomically decreases the allowance granted to `spender` by the caller. This is an alternative to {approve} that can be used as a mitigation for problems described in {IERC20-approve}. Emits an {Approval} event indicating the updated allowance. Requirements: - `spender` cannot be the zero address. - `spender` must have allowance for the caller of at least `subtractedValue`."
      },
      "increaseAllowance(address,uint256)": {
        "details": "Atomically increases the allowance granted to `spender` by the caller. This is an alternative to {approve} that can be used as a mitigation for problems described in {IERC20-approve}. Emits an {Approval} event indicating the updated allowance. Requirements: - `spender` cannot be the zero address."
      },
      "name()": {
        "details": "Returns the name of the token."
      },
      "symbol()": {
        "details": "Returns the symbol of the token, usually a shorter version of the name."
      },
      "totalSupply()": {
        "details": "See {IERC20-totalSupply}."
      },
      "transfer(address,uint256)": {
        "details": "See {IERC20-transfer}. Requirements: - `to` cannot be the zero address. - the caller must have a balance of at least `amount`."
      },
      "transferFrom(address,address,uint256)": {
        "details": "See {IERC20-transferFrom}. Emits an {Approval} event indicating the updated allowance. This is not required by the EIP. See the note at the beginning of {ERC20}. NOTE: Does not update the allowance if the current allowance is the maximum `uint256`. Requirements: - `from` and `to` cannot be the zero address. - `from` must have a balance of at least `amount`. - the caller must have allowance for ``from``'s tokens of at least `amount`."
      }
    },
    "version": 1
  },
  "userdoc": {
    "events": {
      "Staked(address,uint256,uint256,uint256)": {
        "notice": "Staked event is triggered whenever a user stakes tokens, address is indexed to make it filterable"
      }
    },
    "kind": "user",
    "methods": {
      "changeStakingReward(uint256,uint256)": {
        "notice": "changing staking rewards. this takes immediatley effect. this is limited to the members of the staking committee"
      },
      "hasStake(address)": {
        "notice": "hasStake is used to check if a account has stakes and the total amount along with all the seperate stakes"
      },
      "stake(uint256)": {
        "notice": "stake is used to stake a particular amount of tokens"
      },
      "withdrawStake(uint256,uint256)": {
        "notice": "withdrawStake is used to withdraw stakes from the account holder"
      }
    },
    "version": 1
  }
}