{
  "contractName": "MaharlikansManager",
  "abi": [
    {
      "inputs": [],
      "stateMutability": "nonpayable",
      "type": "constructor"
    },
    {
      "inputs": [
        {
          "internalType": "address",
          "name": "manager",
          "type": "address"
        },
        {
          "internalType": "address",
          "name": "referal",
          "type": "address"
        }
      ],
      "name": "referalAdd",
      "outputs": [],
      "stateMutability": "nonpayable",
      "type": "function"
    },
    {
      "inputs": [
        {
          "internalType": "address",
          "name": "referal",
          "type": "address"
        },
        {
          "internalType": "address",
          "name": "newManager",
          "type": "address"
        }
      ],
      "name": "referalChange",
      "outputs": [],
      "stateMutability": "nonpayable",
      "type": "function"
    },
    {
      "inputs": [],
      "name": "getOwner",
      "outputs": [
        {
          "internalType": "address",
          "name": "",
          "type": "address"
        }
      ],
      "stateMutability": "view",
      "type": "function"
    }
  ],
  "bytecode": "0x608060405234801561001057600080fd5b50336000806101000a81548173ffffffffffffffffffffffffffffffffffffffff021916908373ffffffffffffffffffffffffffffffffffffffff1602179055506107eb806100606000396000f3fe608060405234801561001057600080fd5b50600436106100415760003560e01c8063893d20e81461004657806392c832fa14610064578063c7422f1714610080575b600080fd5b61004e61009c565b60405161005b91906104d0565b60405180910390f35b61007e6004803603810190610079919061051c565b6100c5565b005b61009a6004803603810190610095919061051c565b6101f6565b005b60008060009054906101000a900473ffffffffffffffffffffffffffffffffffffffff16905090565b3373ffffffffffffffffffffffffffffffffffffffff16600160008473ffffffffffffffffffffffffffffffffffffffff1673ffffffffffffffffffffffffffffffffffffffff16815260200190815260200160002060009054906101000a900473ffffffffffffffffffffffffffffffffffffffff1673ffffffffffffffffffffffffffffffffffffffff1614806101a9575060008054906101000a900473ffffffffffffffffffffffffffffffffffffffff1673ffffffffffffffffffffffffffffffffffffffff163373ffffffffffffffffffffffffffffffffffffffff16145b6101e8576040517f08c379a00000000000000000000000000000000000000000000000000000000081526004016101df90610605565b60405180910390fd5b6101f282826102d2565b5050565b600073ffffffffffffffffffffffffffffffffffffffff16600160008373ffffffffffffffffffffffffffffffffffffffff1673ffffffffffffffffffffffffffffffffffffffff16815260200190815260200160002060009054906101000a900473ffffffffffffffffffffffffffffffffffffffff1673ffffffffffffffffffffffffffffffffffffffff16036102c4576040517f08c379a00000000000000000000000000000000000000000000000000000000081526004016102bb90610697565b60405180910390fd5b6102ce81836102d2565b5050565b8073ffffffffffffffffffffffffffffffffffffffff168273ffffffffffffffffffffffffffffffffffffffff1603610340576040517f08c379a000000000000000000000000000000000000000000000000000000000815260040161033790610729565b60405180910390fd5b8173ffffffffffffffffffffffffffffffffffffffff16600160008373ffffffffffffffffffffffffffffffffffffffff1673ffffffffffffffffffffffffffffffffffffffff16815260200190815260200160002060009054906101000a900473ffffffffffffffffffffffffffffffffffffffff1673ffffffffffffffffffffffffffffffffffffffff160361040d576040517f08c379a000000000000000000000000000000000000000000000000000000000815260040161040490610795565b60405180910390fd5b80600160008473ffffffffffffffffffffffffffffffffffffffff1673ffffffffffffffffffffffffffffffffffffffff16815260200190815260200160002060006101000a81548173ffffffffffffffffffffffffffffffffffffffff021916908373ffffffffffffffffffffffffffffffffffffffff1602179055505050565b600073ffffffffffffffffffffffffffffffffffffffff82169050919050565b60006104ba8261048f565b9050919050565b6104ca816104af565b82525050565b60006020820190506104e560008301846104c1565b92915050565b600080fd5b6104f9816104af565b811461050457600080fd5b50565b600081359050610516816104f0565b92915050565b60008060408385031215610533576105326104eb565b5b600061054185828601610507565b925050602061055285828601610507565b9150509250929050565b600082825260208201905092915050565b7f5265666572616c2063616e206f6e6c79206265206368616e676564206279207460008201527f68652063757272656e74206d616e61676572206f7220636f6e7472616374206f60208201527f776e657200000000000000000000000000000000000000000000000000000000604082015250565b60006105ef60448361055c565b91506105fa8261056d565b606082019050919050565b6000602082019050818103600083015261061e816105e2565b9050919050565b7f5265666572616c20616c7265616479206861732061206d616e6167657220617360008201527f7369676e65642e20557365207265666572616c4368616e676500000000000000602082015250565b600061068160398361055c565b915061068c82610625565b604082019050919050565b600060208201905081810360008301526106b081610674565b9050919050565b7f4d616e61676572206d75737420626520646966666572656e742066726f6d207260008201527f65666572616c0000000000000000000000000000000000000000000000000000602082015250565b600061071360268361055c565b915061071e826106b7565b604082019050919050565b6000602082019050818103600083015261074281610706565b9050919050565b7f526563757273697665207265666572616c206e6f7420616c6c6f776564000000600082015250565b600061077f601d8361055c565b915061078a82610749565b602082019050919050565b600060208201905081810360008301526107ae81610772565b905091905056fea2646970667358221220ae06d02569be051f10bbcafc4271901fdbf529c24c882f545bce2a28f9af82f764736f6c634300080d0033",
  "immutableReferences": {},
  "source": "// SPDX-License-Identifier: MIT\npragma solidity >=0.8.0 <0.9.0;\n\ncontract MaharlikansManager {\n\n  address private _owner;\n  mapping(address => address) private _referals;\n\n  constructor() {\n    _owner = msg.sender;\n  }\n\n  /**\n   Sets a manager for a referal\n   */\n  function referalAdd(address manager, address referal) public {\n    require(_referals[referal] != address(0), \"Referal already has a manager assigned. Use referalChange\");\n    setManager(referal, manager);\n  }\n  /**\n   Changes the manager for a referal.\n   Can only be called by former manager or contract owner\n   */\n  function referalChange(address referal, address newManager) public {\n    require(_referals[referal] == msg.sender || msg.sender == _owner, \"Referal can only be changed by the current manager or contract owner\");\n    setManager(referal, newManager);\n  }\n\n  function setManager(address referal, address manager) private {\n    require(referal != manager, \"Manager must be different from referal\");\n    require(_referals[manager] != referal, \"Recursive referal not allowed\");\n    _referals[referal] = manager;\n  }\n\n  function getOwner() public view returns (address) {\n    return _owner;\n  }\n}\n",
  "sourcePath": "d:\\BlockchainDev\\Source\\SolidityContracts\\contracts\\Maharlikans\\MaharlikansManager.sol",
  "compiler": {
    "name": "solc",
    "version": "0.8.13+commit.abaa5c0e.Emscripten.clang"
  },
  "schemaVersion": "3.4.7",
  "updatedAt": "2022-05-11T04:57:48.926Z",
  "devdoc": {
    "kind": "dev",
    "methods": {},
    "version": 1
  },
  "userdoc": {
    "kind": "user",
    "methods": {
      "referalAdd(address,address)": {
        "notice": "Sets a manager for a referal"
      },
      "referalChange(address,address)": {
        "notice": "Changes the manager for a referal. Can only be called by former manager or contract owner"
      }
    },
    "version": 1
  }
}