{
  "contractName": "STRANDCore",
  "abi": [
    {
      "inputs": [],
      "name": "getCurrentTimestamp",
      "outputs": [
        {
          "internalType": "uint256",
          "name": "",
          "type": "uint256"
        }
      ],
      "stateMutability": "view",
      "type": "function"
    }
  ],
  "bytecode": "0x60c0610052600b82828239805160001a607314610045577f4e487b7100000000000000000000000000000000000000000000000000000000600052600060045260246000fd5b30600052607381538281f3fe730000000000000000000000000000000000000000301460806040526004361060335760003560e01c80636c9230db146038575b600080fd5b603e6052565b604051604991906071565b60405180910390f35b600042905090565b6000819050919050565b606b81605a565b82525050565b6000602082019050608460008301846064565b9291505056fea2646970667358221220893816a75c864691128f433551277aec6f7cbadb5f6ae25b132e8d47904d0f2864736f6c634300080d0033",
  "immutableReferences": {},
  "source": "// SPDX-License-Identifier: MIT\r\npragma solidity >=0.8.0 <0.9.0;\r\n\r\nlibrary STRANDCore {\r\n    function getCurrentTimestamp() public view returns (uint) {\r\n        return block.timestamp;\r\n    }\r\n}",
  "sourcePath": "d:\\BlockchainDev\\Source\\SolidityContracts\\contracts\\STRANDProduction\\STRANDCore.sol",
  "compiler": {
    "name": "solc",
    "version": "0.8.13+commit.abaa5c0e.Emscripten.clang"
  },
  "schemaVersion": "3.4.7",
  "updatedAt": "2022-05-11T04:57:48.958Z",
  "devdoc": {
    "kind": "dev",
    "methods": {},
    "version": 1
  },
  "userdoc": {
    "kind": "user",
    "methods": {},
    "version": 1
  }
}