{
  "contractName": "STRANDToken",
  "abi": [
    {
      "inputs": [],
      "stateMutability": "nonpayable",
      "type": "constructor"
    },
    {
      "inputs": [],
      "name": "getRoles",
      "outputs": [
        {
          "internalType": "contract STRANDRoles",
          "name": "",
          "type": "address"
        }
      ],
      "stateMutability": "view",
      "type": "function"
    },
    {
      "inputs": [],
      "name": "getVoting",
      "outputs": [
        {
          "internalType": "contract STRANDVoting",
          "name": "",
          "type": "address"
        }
      ],
      "stateMutability": "view",
      "type": "function"
    }
  ],
  "bytecode": "0x608060405234801561001057600080fd5b5060405161001d90610201565b604051809103906000f080158015610039573d6000803e3d6000fd5b506000806101000a81548173ffffffffffffffffffffffffffffffffffffffff021916908373ffffffffffffffffffffffffffffffffffffffff16021790555060008054906101000a900473ffffffffffffffffffffffffffffffffffffffff1673ffffffffffffffffffffffffffffffffffffffff166358d0aba660016040518263ffffffff1660e01b81526004016100d39190610318565b600060405180830381600087803b1580156100ed57600080fd5b505af1158015610101573d6000803e3d6000fd5b5050505060008054906101000a900473ffffffffffffffffffffffffffffffffffffffff1673ffffffffffffffffffffffffffffffffffffffff1663b2d5eae73360016040518363ffffffff1660e01b815260040161016192919061039a565b600060405180830381600087803b15801561017b57600080fd5b505af115801561018f573d6000803e3d6000fd5b5050505060405161019f9061020e565b604051809103906000f0801580156101bb573d6000803e3d6000fd5b50600160006101000a81548173ffffffffffffffffffffffffffffffffffffffff021916908373ffffffffffffffffffffffffffffffffffffffff1602179055506103c3565b61090e806105a883390190565b605c80610eb683390190565b6000819050919050565b600063ffffffff82169050919050565b6000819050919050565b600061025961025461024f8461021a565b610234565b610224565b9050919050565b6102698161023e565b82525050565b600082825260208201905092915050565b7f4f574e4552000000000000000000000000000000000000000000000000000000600082015250565b60006102b660058361026f565b91506102c182610280565b602082019050919050565b7f436f6e7472616374206f776e6572730000000000000000000000000000000000600082015250565b6000610302600f8361026f565b915061030d826102cc565b602082019050919050565b600060608201905061032d6000830184610260565b818103602083015261033e816102a9565b90508181036040830152610351816102f5565b905092915050565b600073ffffffffffffffffffffffffffffffffffffffff82169050919050565b600061038482610359565b9050919050565b61039481610379565b82525050565b60006040820190506103af600083018561038b565b6103bc6020830184610260565b9392505050565b6101d6806103d26000396000f3fe608060405234801561001057600080fd5b50600436106100365760003560e01c80631986d3761461003b5780637106139814610059575b600080fd5b610043610077565b6040516100509190610149565b60405180910390f35b6100616100a1565b60405161006e9190610185565b60405180910390f35b6000600160009054906101000a900473ffffffffffffffffffffffffffffffffffffffff16905090565b60008060009054906101000a900473ffffffffffffffffffffffffffffffffffffffff16905090565b600073ffffffffffffffffffffffffffffffffffffffff82169050919050565b6000819050919050565b600061010f61010a610105846100ca565b6100ea565b6100ca565b9050919050565b6000610121826100f4565b9050919050565b600061013382610116565b9050919050565b61014381610128565b82525050565b600060208201905061015e600083018461013a565b92915050565b600061016f82610116565b9050919050565b61017f81610164565b82525050565b600060208201905061019a6000830184610176565b9291505056fea26469706673582212204f8bfc3e6decbbee54f548fc9c143ef9ac15eda643ec891123fad2eb3830c0f964736f6c634300080d0033608060405234801561001057600080fd5b506108ee806100206000396000f3fe608060405234801561001057600080fd5b506004361061004c5760003560e01c80632a9849611461005157806358d0aba61461006d578063b0df0cf114610089578063b2d5eae7146100a5575b600080fd5b61006b6004803603810190610066919061050c565b6100c1565b005b6100876004803603810190610082919061067f565b61011c565b005b6100a3600480360381019061009e9190610768565b610199565b005b6100bf60048036038101906100ba9190610768565b61030e565b005b6000808263ffffffff1663ffffffff168152602001908152602001600020600080820160006101000a81549063ffffffff021916905560018201600061010791906103d9565b60028201600061011791906103d9565b505050565b60008060008563ffffffff1663ffffffff1681526020019081526020016000209050838160000160006101000a81548163ffffffff021916908363ffffffff16021790555082816001019080519060200190610179929190610419565b5081816002019080519060200190610192929190610419565b5050505050565b60005b600160008473ffffffffffffffffffffffffffffffffffffffff1673ffffffffffffffffffffffffffffffffffffffff16815260200190815260200160002080549050811015610309578163ffffffff16600160008573ffffffffffffffffffffffffffffffffffffffff1673ffffffffffffffffffffffffffffffffffffffff168152602001908152602001600020828154811061023e5761023d6107a8565b5b90600052602060002090600891828204019190066004029054906101000a900463ffffffff1663ffffffff16036102f6576000600160008573ffffffffffffffffffffffffffffffffffffffff1673ffffffffffffffffffffffffffffffffffffffff16815260200190815260200160002082815481106102c2576102c16107a8565b5b90600052602060002090600891828204019190066004026101000a81548163ffffffff021916908363ffffffff1602179055505b808061030190610810565b91505061019c565b505050565b80600160008473ffffffffffffffffffffffffffffffffffffffff1673ffffffffffffffffffffffffffffffffffffffff168152602001908152602001600020600160008573ffffffffffffffffffffffffffffffffffffffff1673ffffffffffffffffffffffffffffffffffffffff16815260200190815260200160002080549050815481106103a2576103a16107a8565b5b90600052602060002090600891828204019190066004026101000a81548163ffffffff021916908363ffffffff1602179055505050565b5080546103e590610887565b6000825580601f106103f75750610416565b601f016020900490600052602060002090810190610415919061049f565b5b50565b82805461042590610887565b90600052602060002090601f016020900481019282610447576000855561048e565b82601f1061046057805160ff191683800117855561048e565b8280016001018555821561048e579182015b8281111561048d578251825591602001919060010190610472565b5b50905061049b919061049f565b5090565b5b808211156104b85760008160009055506001016104a0565b5090565b6000604051905090565b600080fd5b600080fd5b600063ffffffff82169050919050565b6104e9816104d0565b81146104f457600080fd5b50565b600081359050610506816104e0565b92915050565b600060208284031215610522576105216104c6565b5b6000610530848285016104f7565b91505092915050565b600080fd5b600080fd5b6000601f19601f8301169050919050565b7f4e487b7100000000000000000000000000000000000000000000000000000000600052604160045260246000fd5b61058c82610543565b810181811067ffffffffffffffff821117156105ab576105aa610554565b5b80604052505050565b60006105be6104bc565b90506105ca8282610583565b919050565b600067ffffffffffffffff8211156105ea576105e9610554565b5b6105f382610543565b9050602081019050919050565b82818337600083830152505050565b600061062261061d846105cf565b6105b4565b90508281526020810184848401111561063e5761063d61053e565b5b610649848285610600565b509392505050565b600082601f83011261066657610665610539565b5b813561067684826020860161060f565b91505092915050565b600080600060608486031215610698576106976104c6565b5b60006106a6868287016104f7565b935050602084013567ffffffffffffffff8111156106c7576106c66104cb565b5b6106d386828701610651565b925050604084013567ffffffffffffffff8111156106f4576106f36104cb565b5b61070086828701610651565b9150509250925092565b600073ffffffffffffffffffffffffffffffffffffffff82169050919050565b60006107358261070a565b9050919050565b6107458161072a565b811461075057600080fd5b50565b6000813590506107628161073c565b92915050565b6000806040838503121561077f5761077e6104c6565b5b600061078d85828601610753565b925050602061079e858286016104f7565b9150509250929050565b7f4e487b7100000000000000000000000000000000000000000000000000000000600052603260045260246000fd5b7f4e487b7100000000000000000000000000000000000000000000000000000000600052601160045260246000fd5b6000819050919050565b600061081b82610806565b91507fffffffffffffffffffffffffffffffffffffffffffffffffffffffffffffffff820361084d5761084c6107d7565b5b600182019050919050565b7f4e487b7100000000000000000000000000000000000000000000000000000000600052602260045260246000fd5b6000600282049050600182168061089f57607f821691505b6020821081036108b2576108b1610858565b5b5091905056fea264697066735822122048706e4c42789b7d44b1247de00a1f3480499927f0f1865dfa9bdb26737242c364736f6c634300080d00336080604052348015600f57600080fd5b50603f80601d6000396000f3fe6080604052600080fdfea26469706673582212202fbda648b38273dbd1dd42c29bc7f05dec4b316a12b31fc925771e3efcac954364736f6c634300080d0033",
  "immutableReferences": {},
  "source": "// SPDX-License-Identifier: MIT\r\npragma solidity >=0.8.0 <0.9.0;\r\n\r\nimport \"./STRANDVoting.sol\";\r\nimport \"./STRANDRoles.sol\";\r\n\r\ncontract STRANDToken {\r\n    STRANDRoles internal Roles;\r\n    STRANDVoting internal Voting;\r\n    bool internal CanBurn;\r\n    bool internal CanMint;\r\n    uint256 internal InitialSupply;\r\n    string internal Name;\r\n    string internal Symbol;\r\n    constructor() {\r\n        Roles = new STRANDRoles();\r\n        Roles.addRole(1, \"OWNER\", \"Contract owners\");\r\n        Roles.assignRole(msg.sender, 1);\r\n        Voting = new STRANDVoting();\r\n    }\r\n    function setTokenOptions(string memory name, string memory symbol, uint8 decimals, uint256 decimalsIndependentInitialSupply, bool canBurn, bool canMint) internal {\r\n        CanBurn = canBurn;\r\n        CanMint = canMint;\r\n        Name = name;\r\n        Symbol = symbol;\r\n        InitialSupply = decimalsIndependentInitialSupply * 10 ** decimals;\r\n    }\r\n\r\n    function getRoles() public view returns (STRANDRoles) {\r\n        return Roles;\r\n    }\r\n    function getVoting() public view returns (STRANDVoting) {\r\n        return Voting;\r\n    }\r\n}",
  "sourcePath": "d:\\BlockchainDev\\Source\\SolidityContracts\\contracts\\STRANDToken.sol",
  "compiler": {
    "name": "solc",
    "version": "0.8.13+commit.abaa5c0e.Emscripten.clang"
  },
  "schemaVersion": "3.4.7",
  "updatedAt": "2022-05-09T04:39:14.486Z",
  "devdoc": {
    "kind": "dev",
    "methods": {},
    "version": 1
  },
  "userdoc": {
    "kind": "user",
    "methods": {},
    "version": 1
  }
}