{
  "contractName": "STRANDRoles",
  "abi": [
    {
      "inputs": [
        {
          "internalType": "uint32",
          "name": "id",
          "type": "uint32"
        },
        {
          "internalType": "string",
          "name": "name",
          "type": "string"
        },
        {
          "internalType": "string",
          "name": "description",
          "type": "string"
        }
      ],
      "name": "addRole",
      "outputs": [],
      "stateMutability": "nonpayable",
      "type": "function"
    },
    {
      "inputs": [
        {
          "internalType": "string",
          "name": "name",
          "type": "string"
        },
        {
          "internalType": "string",
          "name": "description",
          "type": "string"
        }
      ],
      "name": "addRole",
      "outputs": [
        {
          "internalType": "uint32",
          "name": "",
          "type": "uint32"
        }
      ],
      "stateMutability": "nonpayable",
      "type": "function"
    },
    {
      "inputs": [
        {
          "internalType": "address",
          "name": "user",
          "type": "address"
        },
        {
          "internalType": "uint32",
          "name": "role",
          "type": "uint32"
        }
      ],
      "name": "assignRole",
      "outputs": [],
      "stateMutability": "nonpayable",
      "type": "function"
    },
    {
      "inputs": [
        {
          "internalType": "address",
          "name": "user",
          "type": "address"
        },
        {
          "internalType": "uint32",
          "name": "role",
          "type": "uint32"
        }
      ],
      "name": "unassignRole",
      "outputs": [],
      "stateMutability": "nonpayable",
      "type": "function"
    },
    {
      "inputs": [
        {
          "internalType": "uint32",
          "name": "id",
          "type": "uint32"
        }
      ],
      "name": "removeRole",
      "outputs": [],
      "stateMutability": "nonpayable",
      "type": "function"
    },
    {
      "inputs": [
        {
          "internalType": "address",
          "name": "user",
          "type": "address"
        },
        {
          "internalType": "uint32",
          "name": "role",
          "type": "uint32"
        }
      ],
      "name": "hasRoleAssigned",
      "outputs": [
        {
          "internalType": "bool",
          "name": "",
          "type": "bool"
        }
      ],
      "stateMutability": "view",
      "type": "function"
    }
  ],
  "bytecode": "0x60806040526000600260006101000a81548163ffffffff021916908363ffffffff16021790555034801561003257600080fd5b50610dd1806100426000396000f3fe608060405234801561001057600080fd5b50600436106100625760003560e01c80632a9849611461006757806358d0aba61461008357806374de839c1461009f578063b0df0cf1146100cf578063b2d5eae7146100eb578063dd517fae14610107575b600080fd5b610081600480360381019061007c91906108b7565b610137565b005b61009d60048036038101906100989190610a2a565b610192565b005b6100b960048036038101906100b49190610b13565b61023a565b6040516100c69190610b6e565b60405180910390f35b6100e960048036038101906100e49190610b13565b61033e565b005b61010560048036038101906101009190610b13565b6105d6565b005b610121600480360381019061011c9190610b89565b610665565b60405161012e9190610c10565b60405180910390f35b6000808263ffffffff1663ffffffff168152602001908152602001600020600080820160006101000a81549063ffffffff021916905560018201600061017d91906106d4565b60028201600061018d91906106d4565b505050565b60405180606001604052808463ffffffff168152602001838152602001828152506000808563ffffffff1663ffffffff16815260200190815260200160002060008201518160000160006101000a81548163ffffffff021916908363ffffffff1602179055506020820151816001019080519060200190610214929190610714565b506040820151816002019080519060200190610231929190610714565b50905050505050565b6000806000905060005b600160008673ffffffffffffffffffffffffffffffffffffffff1673ffffffffffffffffffffffffffffffffffffffff16815260200190815260200160002080549050811015610333578363ffffffff16600160008773ffffffffffffffffffffffffffffffffffffffff1673ffffffffffffffffffffffffffffffffffffffff16815260200190815260200160002082815481106102e6576102e5610c2b565b5b90600052602060002090600891828204019190066004029054906101000a900463ffffffff1663ffffffff16036103205760019150610333565b808061032b90610c93565b915050610244565b508091505092915050565b600060018060008573ffffffffffffffffffffffffffffffffffffffff1673ffffffffffffffffffffffffffffffffffffffff1681526020019081526020016000208054905061038e9190610cdb565b67ffffffffffffffff8111156103a7576103a66108ff565b5b6040519080825280602002602001820160405280156103d55781602001602082028036833780820191505090505b5090506000805b600160008673ffffffffffffffffffffffffffffffffffffffff1673ffffffffffffffffffffffffffffffffffffffff1681526020019081526020016000208054905081101561057b578363ffffffff16600160008773ffffffffffffffffffffffffffffffffffffffff1673ffffffffffffffffffffffffffffffffffffffff168152602001908152602001600020828154811061047e5761047d610c2b565b5b90600052602060002090600891828204019190066004029054906101000a900463ffffffff1663ffffffff161461056857600160008673ffffffffffffffffffffffffffffffffffffffff1673ffffffffffffffffffffffffffffffffffffffff1681526020019081526020016000208181548110610500576104ff610c2b565b5b90600052602060002090600891828204019190066004029054906101000a900463ffffffff16838363ffffffff168151811061053f5761053e610c2b565b5b602002602001019063ffffffff16908163ffffffff1681525050818061056490610d0f565b9250505b808061057390610c93565b9150506103dc565b5081600160008673ffffffffffffffffffffffffffffffffffffffff1673ffffffffffffffffffffffffffffffffffffffff16815260200190815260200160002090805190602001906105cf92919061079a565b5050505050565b600160008373ffffffffffffffffffffffffffffffffffffffff1673ffffffffffffffffffffffffffffffffffffffff1681526020019081526020016000208190806001815401808255809150506001900390600052602060002090600891828204019190066004029091909190916101000a81548163ffffffff021916908363ffffffff1602179055505050565b60006002600081819054906101000a900463ffffffff168092919061068990610d0f565b91906101000a81548163ffffffff021916908363ffffffff160217905550506000600260009054906101000a900463ffffffff1690506106ca818585610192565b8091505092915050565b5080546106e090610d6a565b6000825580601f106106f25750610711565b601f016020900490600052602060002090810190610710919061084a565b5b50565b82805461072090610d6a565b90600052602060002090601f0160209004810192826107425760008555610789565b82601f1061075b57805160ff1916838001178555610789565b82800160010185558215610789579182015b8281111561078857825182559160200191906001019061076d565b5b509050610796919061084a565b5090565b828054828255906000526020600020906007016008900481019282156108395791602002820160005b8382111561080757835183826101000a81548163ffffffff021916908363ffffffff16021790555092602001926004016020816003010492830192600103026107c3565b80156108375782816101000a81549063ffffffff0219169055600401602081600301049283019260010302610807565b505b509050610846919061084a565b5090565b5b8082111561086357600081600090555060010161084b565b5090565b6000604051905090565b600080fd5b600080fd5b600063ffffffff82169050919050565b6108948161087b565b811461089f57600080fd5b50565b6000813590506108b18161088b565b92915050565b6000602082840312156108cd576108cc610871565b5b60006108db848285016108a2565b91505092915050565b600080fd5b600080fd5b6000601f19601f8301169050919050565b7f4e487b7100000000000000000000000000000000000000000000000000000000600052604160045260246000fd5b610937826108ee565b810181811067ffffffffffffffff82111715610956576109556108ff565b5b80604052505050565b6000610969610867565b9050610975828261092e565b919050565b600067ffffffffffffffff821115610995576109946108ff565b5b61099e826108ee565b9050602081019050919050565b82818337600083830152505050565b60006109cd6109c88461097a565b61095f565b9050828152602081018484840111156109e9576109e86108e9565b5b6109f48482856109ab565b509392505050565b600082601f830112610a1157610a106108e4565b5b8135610a218482602086016109ba565b91505092915050565b600080600060608486031215610a4357610a42610871565b5b6000610a51868287016108a2565b935050602084013567ffffffffffffffff811115610a7257610a71610876565b5b610a7e868287016109fc565b925050604084013567ffffffffffffffff811115610a9f57610a9e610876565b5b610aab868287016109fc565b9150509250925092565b600073ffffffffffffffffffffffffffffffffffffffff82169050919050565b6000610ae082610ab5565b9050919050565b610af081610ad5565b8114610afb57600080fd5b50565b600081359050610b0d81610ae7565b92915050565b60008060408385031215610b2a57610b29610871565b5b6000610b3885828601610afe565b9250506020610b49858286016108a2565b9150509250929050565b60008115159050919050565b610b6881610b53565b82525050565b6000602082019050610b836000830184610b5f565b92915050565b60008060408385031215610ba057610b9f610871565b5b600083013567ffffffffffffffff811115610bbe57610bbd610876565b5b610bca858286016109fc565b925050602083013567ffffffffffffffff811115610beb57610bea610876565b5b610bf7858286016109fc565b9150509250929050565b610c0a8161087b565b82525050565b6000602082019050610c256000830184610c01565b92915050565b7f4e487b7100000000000000000000000000000000000000000000000000000000600052603260045260246000fd5b7f4e487b7100000000000000000000000000000000000000000000000000000000600052601160045260246000fd5b6000819050919050565b6000610c9e82610c89565b91507fffffffffffffffffffffffffffffffffffffffffffffffffffffffffffffffff8203610cd057610ccf610c5a565b5b600182019050919050565b6000610ce682610c89565b9150610cf183610c89565b925082821015610d0457610d03610c5a565b5b828203905092915050565b6000610d1a8261087b565b915063ffffffff8203610d3057610d2f610c5a565b5b600182019050919050565b7f4e487b7100000000000000000000000000000000000000000000000000000000600052602260045260246000fd5b60006002820490506001821680610d8257607f821691505b602082108103610d9557610d94610d3b565b5b5091905056fea264697066735822122011274b0b04681b93e94df895fc3b0c1a943345d5dcb3de6b322ca7107c94315264736f6c634300080d0033",
  "immutableReferences": {},
  "source": "// SPDX-License-Identifier: MIT\r\npragma solidity >=0.8.0 <0.9.0;\r\n\r\ncontract STRANDRoles {\r\n    struct Role {\r\n        uint32 Id;\r\n        string Name;\r\n        string Description;\r\n    }\r\n    mapping(uint32 => Role) private _roles;\r\n    mapping(address => uint32[]) internal AssignedRoles;\r\n    uint32 private _highestRoleId = 0;\r\n\r\n    function addRole(uint32 id, string memory name, string memory description) public {\r\n        _roles[id] = Role(id, name, description);\r\n    }\r\n    function addRole(string memory name, string memory description) public returns (uint32) {\r\n        _highestRoleId++;\r\n        uint32 roleId = _highestRoleId;\r\n        addRole(roleId, name, description);\r\n        return roleId;\r\n    }\r\n    function assignRole(address user, uint32 role) public {\r\n        AssignedRoles[user].push(role);\r\n    }\r\n    function unassignRole(address user, uint32 role) public {\r\n        uint32[] memory newRoles = new uint32[](AssignedRoles[user].length - 1);\r\n        uint32 counter = 0;\r\n        for(uint i = 0; i < AssignedRoles[user].length; i++) {\r\n            if(AssignedRoles[user][i] != role) {\r\n                newRoles[counter] = AssignedRoles[user][i];\r\n                counter++;\r\n            }\r\n        }\r\n        AssignedRoles[user] = newRoles;\r\n    }\r\n    function removeRole(uint32 id) public {\r\n        delete _roles[id];\r\n    }\r\n    function hasRoleAssigned(address user, uint32 role) public view returns (bool) {\r\n        bool ret = false;\r\n        for(uint i = 0; i < AssignedRoles[user].length; i++) {\r\n            if(AssignedRoles[user][i] == role) {\r\n                ret = true;\r\n                break;\r\n            }\r\n        }\r\n        return ret;\r\n    }\r\n}\r\n",
  "sourcePath": "d:\\BlockchainDev\\Source\\SolidityContracts\\contracts\\STRANDProduction\\STRANDRoles.sol",
  "compiler": {
    "name": "solc",
    "version": "0.8.13+commit.abaa5c0e.Emscripten.clang"
  },
  "schemaVersion": "3.4.7",
  "updatedAt": "2022-05-10T09:45:46.421Z",
  "devdoc": {
    "kind": "dev",
    "methods": {},
    "version": 1
  },
  "userdoc": {
    "kind": "user",
    "methods": {},
    "version": 1
  }
}