{
  "contractName": "STRANDStakeable",
  "abi": [
    {
      "inputs": [],
      "stateMutability": "nonpayable",
      "type": "constructor"
    },
    {
      "anonymous": false,
      "inputs": [
        {
          "indexed": true,
          "internalType": "address",
          "name": "user",
          "type": "address"
        },
        {
          "indexed": false,
          "internalType": "uint256",
          "name": "amount",
          "type": "uint256"
        },
        {
          "indexed": false,
          "internalType": "uint256",
          "name": "index",
          "type": "uint256"
        },
        {
          "indexed": false,
          "internalType": "uint256",
          "name": "timestamp",
          "type": "uint256"
        }
      ],
      "name": "Staked",
      "type": "event"
    },
    {
      "inputs": [
        {
          "internalType": "address",
          "name": "_staker",
          "type": "address"
        }
      ],
      "name": "hasStake",
      "outputs": [
        {
          "components": [
            {
              "internalType": "uint256",
              "name": "total_amount",
              "type": "uint256"
            },
            {
              "components": [
                {
                  "internalType": "address",
                  "name": "user",
                  "type": "address"
                },
                {
                  "internalType": "uint256",
                  "name": "amount",
                  "type": "uint256"
                },
                {
                  "internalType": "uint256",
                  "name": "since",
                  "type": "uint256"
                },
                {
                  "internalType": "uint256",
                  "name": "claimable",
                  "type": "uint256"
                }
              ],
              "internalType": "struct STRANDStakeable.Stake[]",
              "name": "stakes",
              "type": "tuple[]"
            }
          ],
          "internalType": "struct STRANDStakeable.StakingSummary",
          "name": "",
          "type": "tuple"
        }
      ],
      "stateMutability": "view",
      "type": "function"
    }
  ],
  "bytecode": "0x608060405234801561001057600080fd5b506000600181600181540180825580915050039060005260206000209050506107818061003e6000396000f3fe608060405234801561001057600080fd5b506004361061002b5760003560e01c8063e73e14bf14610030575b600080fd5b61004a60048036038101906100459190610398565b610060565b604051610057919061052e565b60405180910390f35b61006861031b565b6000806040518060400160405280600081526020016000600160008873ffffffffffffffffffffffffffffffffffffffff1673ffffffffffffffffffffffffffffffffffffffff16815260200190815260200160002054815481106100d0576100cf610550565b5b9060005260206000209060020201600101805480602002602001604051908101604052809291908181526020016000905b828210156101a757838290600052602060002090600402016040518060800160405290816000820160009054906101000a900473ffffffffffffffffffffffffffffffffffffffff1673ffffffffffffffffffffffffffffffffffffffff1673ffffffffffffffffffffffffffffffffffffffff168152602001600182015481526020016002820154815260200160038201548152505081526020019060010190610101565b50505050815250905060005b8160200151518110156102585760006101e9836020015183815181106101dc576101db610550565b5b602002602001015161026d565b9050808360200151838151811061020357610202610550565b5b602002602001015160600181815250508260200151828151811061022a57610229610550565b5b6020026020010151602001518461024191906105ae565b93505060018161025191906105ae565b90506101b3565b50818160000181815250508092505050919050565b60006002548260200151600354846040015173__STRANDCore____________________________636c9230db6040518163ffffffff1660e01b8152600401602060405180830381865af41580156102c8573d6000803e3d6000fd5b505050506040513d601f19601f820116820180604052508101906102ec9190610630565b6102f6919061065d565b61030091906106c0565b61030a91906106f1565b61031491906106c0565b9050919050565b604051806040016040528060008152602001606081525090565b600080fd5b600073ffffffffffffffffffffffffffffffffffffffff82169050919050565b60006103658261033a565b9050919050565b6103758161035a565b811461038057600080fd5b50565b6000813590506103928161036c565b92915050565b6000602082840312156103ae576103ad610335565b5b60006103bc84828501610383565b91505092915050565b6000819050919050565b6103d8816103c5565b82525050565b600081519050919050565b600082825260208201905092915050565b6000819050602082019050919050565b6104138161035a565b82525050565b60808201600082015161042f600085018261040a565b50602082015161044260208501826103cf565b50604082015161045560408501826103cf565b50606082015161046860608501826103cf565b50505050565b600061047a8383610419565b60808301905092915050565b6000602082019050919050565b600061049e826103de565b6104a881856103e9565b93506104b3836103fa565b8060005b838110156104e45781516104cb888261046e565b97506104d683610486565b9250506001810190506104b7565b5085935050505092915050565b600060408301600083015161050960008601826103cf565b50602083015184820360208601526105218282610493565b9150508091505092915050565b6000602082019050818103600083015261054881846104f1565b905092915050565b7f4e487b7100000000000000000000000000000000000000000000000000000000600052603260045260246000fd5b7f4e487b7100000000000000000000000000000000000000000000000000000000600052601160045260246000fd5b60006105b9826103c5565b91506105c4836103c5565b9250827fffffffffffffffffffffffffffffffffffffffffffffffffffffffffffffffff038211156105f9576105f861057f565b5b828201905092915050565b61060d816103c5565b811461061857600080fd5b50565b60008151905061062a81610604565b92915050565b60006020828403121561064657610645610335565b5b60006106548482850161061b565b91505092915050565b6000610668826103c5565b9150610673836103c5565b9250828210156106865761068561057f565b5b828203905092915050565b7f4e487b7100000000000000000000000000000000000000000000000000000000600052601260045260246000fd5b60006106cb826103c5565b91506106d6836103c5565b9250826106e6576106e5610691565b5b828204905092915050565b60006106fc826103c5565b9150610707836103c5565b9250817fffffffffffffffffffffffffffffffffffffffffffffffffffffffffffffffff04831182151516156107405761073f61057f565b5b82820290509291505056fea2646970667358221220261bf49fe5b2bf02ec57738dd92b0af4d145362ab98fa7745920aac9dd60448064736f6c634300080d0033",
  "immutableReferences": {},
  "source": "// SPDX-License-Identifier: MIT\r\npragma solidity >=0.8.0 <0.9.0;\r\n\r\nimport \"./STRANDCore.sol\";\r\n\r\ncontract STRANDStakeable {\r\n    /**\r\n    * @notice Constructor since this contract is not ment to be used without inheritance\r\n    * push once to stakeholders for it to work proplerly\r\n     */\r\n    constructor() {\r\n        // This push is needed so we avoid index 0 causing bug of index-1\r\n        stakeholders.push();\r\n    }\r\n    /**\r\n     * @notice\r\n     * A stake struct is used to represent the way we store stakes, \r\n     * A Stake will contain the users address, the amount staked and a timestamp, \r\n     * Since which is when the stake was made\r\n     */\r\n    struct Stake{\r\n        address user;\r\n        uint256 amount;\r\n        uint256 since;\r\n        // This claimable field is new and used to tell how big of a reward is currently available\r\n        uint256 claimable;\r\n    }\r\n    /**\r\n    * @notice Stakeholder is a staker that has active stakes\r\n     */\r\n    struct Stakeholder{\r\n        address user;\r\n        Stake[] address_stakes;\r\n        \r\n    }\r\n     /**\r\n     * @notice\r\n     * StakingSummary is a struct that is used to contain all stakes performed by a certain account\r\n     */ \r\n     struct StakingSummary{\r\n         uint256 total_amount;\r\n         Stake[] stakes;\r\n     }\r\n\r\n    /**\r\n    * @notice \r\n    *   This is a array where we store all Stakes that are performed on the Contract\r\n    *   The stakes for each address are stored at a certain index, the index can be found using the stakes mapping\r\n    */\r\n    Stakeholder[] internal stakeholders;\r\n    /**\r\n    * @notice \r\n    * stakes is used to keep track of the INDEX for the stakers in the stakes array\r\n     */\r\n    mapping(address => uint256) internal stakes;\r\n    /**\r\n    * @notice Staked event is triggered whenever a user stakes tokens, address is indexed to make it filterable\r\n     */\r\n    event Staked(address indexed user, uint256 amount, uint256 index, uint256 timestamp);\r\n\r\n    /**\r\n     * @notice\r\n      rewardPerHour is 1000 because it is used to represent 0.001, since we only use integer numbers\r\n      This will give users 0.1% reward for each staked token / H\r\n     */\r\n    uint256 internal _rewardPerInterval;\r\n    uint internal _rewardInterval;\r\n\r\n    function _setStakingReward(uint rewardPeriode, uint256 rewardPercentage) internal {\r\n        _rewardInterval = rewardPeriode;\r\n        _rewardPerInterval = rewardPercentage;\r\n    }\r\n\r\n    /**\r\n    * @notice _addStakeholder takes care of adding a stakeholder to the stakeholders array\r\n     */\r\n    function _addStakeholder(address staker) internal returns (uint256){\r\n        // Push a empty item to the Array to make space for our new stakeholder\r\n        stakeholders.push();\r\n        // Calculate the index of the last item in the array by Len-1\r\n        uint256 userIndex = stakeholders.length - 1;\r\n        // Assign the address to the new index\r\n        stakeholders[userIndex].user = staker;\r\n        // Add index to the stakeHolders\r\n        stakes[staker] = userIndex;\r\n        return userIndex; \r\n    }\r\n\r\n    /**\r\n    * @notice\r\n    * _Stake is used to make a stake for an sender. It will remove the amount staked from the stakers account and place those tokens inside a stake container\r\n    * StakeID \r\n    */\r\n    function _stake(uint256 _amount) internal{\r\n        // Simple check so that user does not stake 0 \r\n        require(_amount > 0, \"Cannot stake nothing\");\r\n        \r\n\r\n        // Mappings in solidity creates all values, but empty, so we can just check the address\r\n        uint256 index = stakes[msg.sender];\r\n        // block.timestamp = timestamp of the current block in seconds since the epoch\r\n        uint256 timestamp = STRANDCore.getCurrentTimestamp();\r\n        // See if the staker already has a staked index or if its the first time\r\n        if(index == 0){\r\n            // This stakeholder stakes for the first time\r\n            // We need to add him to the stakeHolders and also map it into the Index of the stakes\r\n            // The index returned will be the index of the stakeholder in the stakeholders array\r\n            index = _addStakeholder(msg.sender);\r\n        }\r\n\r\n        // Use the index to push a new Stake\r\n        // push a newly created Stake with the current block timestamp.\r\n        stakeholders[index].address_stakes.push(Stake(msg.sender, _amount, timestamp,0));\r\n        // Emit an event that the stake has occured\r\n        emit Staked(msg.sender, _amount, index,timestamp);\r\n    }\r\n\r\n    /**\r\n      * @notice\r\n      * calculateStakeReward is used to calculate how much a user should be rewarded for their stakes\r\n      * and the duration the stake has been active\r\n     */\r\n      function calculateStakeReward(Stake memory _current_stake) internal view returns(uint256){\r\n          // First calculate how long the stake has been active\r\n          // Use current seconds since epoch - the seconds since epoch the stake was made\r\n          // The output will be duration in SECONDS ,\r\n          // We will reward the user 0.1% per Hour So thats 0.1% per 3600 seconds\r\n          // the alghoritm is  seconds = block.timestamp - stake seconds (block.timestap - _stake.since)\r\n          // hours = Seconds / 3600 (seconds /3600) 3600 is an variable in Solidity names hours\r\n          // we then multiply each token by the hours staked , then divide by the rewardPerHour rate \r\n          return (((STRANDCore.getCurrentTimestamp() - _current_stake.since) / _rewardInterval) * _current_stake.amount) / _rewardPerInterval;\r\n      }\r\n\r\n    /**\r\n     * @notice\r\n     * withdrawStake takes in an amount and a index of the stake and will remove tokens from that stake\r\n     * Notice index of the stake is the users stake counter, starting at 0 for the first stake\r\n     * Will return the amount to MINT onto the acount\r\n     * Will also calculateStakeReward and reset timer\r\n    */\r\n     function _withdrawStake(uint256 amount, uint256 index) internal returns(uint256){\r\n         // Grab user_index which is the index to use to grab the Stake[]\r\n        uint256 user_index = stakes[msg.sender];\r\n        Stake memory current_stake = stakeholders[user_index].address_stakes[index];\r\n        require(current_stake.amount >= amount, \"Staking: Cannot withdraw more than you have staked\");\r\n\r\n         // Calculate available Reward first before we start modifying data\r\n         uint256 reward = calculateStakeReward(current_stake);\r\n         // Remove by subtracting the money unstaked \r\n         current_stake.amount = current_stake.amount - amount;\r\n         // If stake is empty, 0, then remove it from the array of stakes\r\n         if(current_stake.amount == 0){\r\n             delete stakeholders[user_index].address_stakes[index];\r\n         }else {\r\n             // If not empty then replace the value of it\r\n             stakeholders[user_index].address_stakes[index].amount = current_stake.amount;\r\n             // Reset timer of stake\r\n            stakeholders[user_index].address_stakes[index].since = STRANDCore.getCurrentTimestamp();    \r\n         }\r\n\r\n         return amount+reward;\r\n     }\r\n\r\n     /**\r\n     * @notice\r\n     * hasStake is used to check if a account has stakes and the total amount along with all the seperate stakes\r\n     */\r\n    function hasStake(address _staker) public view returns(StakingSummary memory){\r\n        // totalStakeAmount is used to count total staked amount of the address\r\n        uint256 totalStakeAmount; \r\n        // Keep a summary in memory since we need to calculate this\r\n        StakingSummary memory summary = StakingSummary(0, stakeholders[stakes[_staker]].address_stakes);\r\n        // Itterate all stakes and grab amount of stakes\r\n        for (uint256 s = 0; s < summary.stakes.length; s += 1){\r\n           uint256 availableReward = calculateStakeReward(summary.stakes[s]);\r\n           summary.stakes[s].claimable = availableReward;\r\n           totalStakeAmount = totalStakeAmount+summary.stakes[s].amount;\r\n       }\r\n       // Assign calculate amount to summary\r\n       summary.total_amount = totalStakeAmount;\r\n        return summary;\r\n    }\r\n}",
  "sourcePath": "d:\\BlockchainDev\\Source\\SolidityContracts\\contracts\\STRANDProduction\\STRANDStakeable.sol",
  "compiler": {
    "name": "solc",
    "version": "0.8.13+commit.abaa5c0e.Emscripten.clang"
  },
  "schemaVersion": "3.4.7",
  "updatedAt": "2022-05-10T09:45:46.446Z",
  "devdoc": {
    "kind": "dev",
    "methods": {},
    "version": 1
  },
  "userdoc": {
    "events": {
      "Staked(address,uint256,uint256,uint256)": {
        "notice": "Staked event is triggered whenever a user stakes tokens, address is indexed to make it filterable"
      }
    },
    "kind": "user",
    "methods": {
      "constructor": {
        "notice": "Constructor since this contract is not ment to be used without inheritance push once to stakeholders for it to work proplerly"
      },
      "hasStake(address)": {
        "notice": "hasStake is used to check if a account has stakes and the total amount along with all the seperate stakes"
      }
    },
    "version": 1
  }
}