{
  "contractName": "STRANDElections",
  "abi": [
    {
      "anonymous": false,
      "inputs": [
        {
          "indexed": true,
          "internalType": "uint32",
          "name": "applicationNumber",
          "type": "uint32"
        }
      ],
      "name": "ApplicationAccepted",
      "type": "event"
    },
    {
      "anonymous": false,
      "inputs": [
        {
          "indexed": true,
          "internalType": "uint32",
          "name": "applicationNumber",
          "type": "uint32"
        },
        {
          "indexed": false,
          "internalType": "string",
          "name": "reason",
          "type": "string"
        }
      ],
      "name": "ApplicationRefused",
      "type": "event"
    },
    {
      "anonymous": false,
      "inputs": [
        {
          "indexed": true,
          "internalType": "uint32",
          "name": "applicationNumber",
          "type": "uint32"
        },
        {
          "indexed": false,
          "internalType": "address",
          "name": "user",
          "type": "address"
        },
        {
          "indexed": false,
          "internalType": "uint32",
          "name": "role",
          "type": "uint32"
        },
        {
          "indexed": false,
          "internalType": "string",
          "name": "title",
          "type": "string"
        },
        {
          "indexed": false,
          "internalType": "string",
          "name": "text",
          "type": "string"
        }
      ],
      "name": "NewApplication",
      "type": "event"
    },
    {
      "inputs": [
        {
          "internalType": "uint32",
          "name": "applicationNumber",
          "type": "uint32"
        }
      ],
      "name": "getApplication",
      "outputs": [
        {
          "components": [
            {
              "internalType": "address",
              "name": "submittedBy",
              "type": "address"
            },
            {
              "internalType": "address",
              "name": "nominee",
              "type": "address"
            },
            {
              "internalType": "uint32",
              "name": "forRole",
              "type": "uint32"
            },
            {
              "internalType": "string",
              "name": "title",
              "type": "string"
            },
            {
              "internalType": "string",
              "name": "text",
              "type": "string"
            },
            {
              "internalType": "string[]",
              "name": "contactAddresses",
              "type": "string[]"
            },
            {
              "internalType": "enum STRANDElections.ApplicationState",
              "name": "state",
              "type": "uint8"
            },
            {
              "internalType": "uint256",
              "name": "submissionTimestamp",
              "type": "uint256"
            },
            {
              "internalType": "uint256",
              "name": "decisionTimestamp",
              "type": "uint256"
            }
          ],
          "internalType": "struct STRANDElections.Application",
          "name": "",
          "type": "tuple"
        }
      ],
      "stateMutability": "view",
      "type": "function"
    },
    {
      "inputs": [
        {
          "internalType": "address",
          "name": "user",
          "type": "address"
        },
        {
          "internalType": "uint32",
          "name": "role",
          "type": "uint32"
        },
        {
          "internalType": "string",
          "name": "title",
          "type": "string"
        },
        {
          "internalType": "string",
          "name": "text",
          "type": "string"
        },
        {
          "internalType": "string[]",
          "name": "contactAddresses",
          "type": "string[]"
        }
      ],
      "name": "submitApplication",
      "outputs": [
        {
          "internalType": "uint32",
          "name": "",
          "type": "uint32"
        }
      ],
      "stateMutability": "nonpayable",
      "type": "function"
    },
    {
      "inputs": [
        {
          "internalType": "uint32",
          "name": "applicationNumber",
          "type": "uint32"
        },
        {
          "internalType": "string",
          "name": "reason",
          "type": "string"
        }
      ],
      "name": "refuseApplication",
      "outputs": [],
      "stateMutability": "nonpayable",
      "type": "function"
    },
    {
      "inputs": [
        {
          "internalType": "uint32",
          "name": "applicationNumber",
          "type": "uint32"
        }
      ],
      "name": "acceptApplication",
      "outputs": [],
      "stateMutability": "nonpayable",
      "type": "function"
    }
  ],
  "bytecode": "0x60806040526000600160006101000a81548163ffffffff021916908363ffffffff16021790555034801561003257600080fd5b506114d7806100426000396000f3fe608060405234801561001057600080fd5b506004361061004c5760003560e01c806323a6778814610051578063594089f3146100815780639aefca8e146100b1578063f969cdcb146100cd575b600080fd5b61006b60048036038101906100669190610bc6565b6100e9565b6040516100789190610f01565b60405180910390f35b61009b6004803603810190610096919061116a565b610440565b6040516100a89190611248565b60405180910390f35b6100cb60048036038101906100c69190611263565b61074f565b005b6100e760048036038101906100e29190610bc6565b61086d565b005b6100f161097f565b6000808363ffffffff1663ffffffff168152602001908152602001600020604051806101200160405290816000820160009054906101000a900473ffffffffffffffffffffffffffffffffffffffff1673ffffffffffffffffffffffffffffffffffffffff1673ffffffffffffffffffffffffffffffffffffffff1681526020016001820160009054906101000a900473ffffffffffffffffffffffffffffffffffffffff1673ffffffffffffffffffffffffffffffffffffffff1673ffffffffffffffffffffffffffffffffffffffff1681526020016001820160149054906101000a900463ffffffff1663ffffffff1663ffffffff1681526020016002820180546101fd906112ee565b80601f0160208091040260200160405190810160405280929190818152602001828054610229906112ee565b80156102765780601f1061024b57610100808354040283529160200191610276565b820191906000526020600020905b81548152906001019060200180831161025957829003601f168201915b5050505050815260200160038201805461028f906112ee565b80601f01602080910402602001604051908101604052809291908181526020018280546102bb906112ee565b80156103085780601f106102dd57610100808354040283529160200191610308565b820191906000526020600020905b8154815290600101906020018083116102eb57829003601f168201915b5050505050815260200160048201805480602002602001604051908101604052809291908181526020016000905b828210156103e2578382906000526020600020018054610355906112ee565b80601f0160208091040260200160405190810160405280929190818152602001828054610381906112ee565b80156103ce5780601f106103a3576101008083540402835291602001916103ce565b820191906000526020600020905b8154815290600101906020018083116103b157829003601f168201915b505050505081526020019060010190610336565b5050505081526020016005820160009054906101000a900460ff16600281111561040f5761040e610d9e565b5b600281111561042157610420610d9e565b5b8152602001600682015481526020016007820154815250509050919050565b60006001600081819054906101000a900463ffffffff16809291906104649061134e565b91906101000a81548163ffffffff021916908363ffffffff160217905550506000600160009054906101000a900463ffffffff1690506040518061012001604052803373ffffffffffffffffffffffffffffffffffffffff1681526020018873ffffffffffffffffffffffffffffffffffffffff1681526020018763ffffffff168152602001868152602001858152602001848152602001600060028111156105105761050f610d9e565b5b815260200173__STRANDCore____________________________636c9230db6040518163ffffffff1660e01b8152600401602060405180830381865af415801561055e573d6000803e3d6000fd5b505050506040513d601f19601f8201168201806040525081019061058291906113a6565b815260200160008152506000808363ffffffff1663ffffffff16815260200190815260200160002060008201518160000160006101000a81548173ffffffffffffffffffffffffffffffffffffffff021916908373ffffffffffffffffffffffffffffffffffffffff16021790555060208201518160010160006101000a81548173ffffffffffffffffffffffffffffffffffffffff021916908373ffffffffffffffffffffffffffffffffffffffff16021790555060408201518160010160146101000a81548163ffffffff021916908363ffffffff160217905550606082015181600201908051906020019061067b929190610a0f565b506080820151816003019080519060200190610698929190610a0f565b5060a08201518160040190805190602001906106b5929190610a95565b5060c08201518160050160006101000a81548160ff021916908360028111156106e1576106e0610d9e565b5b021790555060e0820151816006015561010082015181600701559050508063ffffffff167f7c04b6898a91b9a37334ebb1f6a25e976e36a024acd96086ec748261177cdd048888888860405161073a949392919061142c565b60405180910390a28091505095945050505050565b60016000808463ffffffff1663ffffffff16815260200190815260200160002060050160006101000a81548160ff0219169083600281111561079457610793610d9e565b5b021790555073__STRANDCore____________________________636c9230db6040518163ffffffff1660e01b8152600401602060405180830381865af41580156107e2573d6000803e3d6000fd5b505050506040513d601f19601f8201168201806040525081019061080691906113a6565b6000808463ffffffff1663ffffffff168152602001908152602001600020600701819055508163ffffffff167f4c348e02993731a3c7755cb6e1b2ce2fdfc472423082d97e3dddca9e0bc42b8082604051610861919061147f565b60405180910390a25050565b60026000808363ffffffff1663ffffffff16815260200190815260200160002060050160006101000a81548160ff021916908360028111156108b2576108b1610d9e565b5b021790555073__STRANDCore____________________________636c9230db6040518163ffffffff1660e01b8152600401602060405180830381865af4158015610900573d6000803e3d6000fd5b505050506040513d601f19601f8201168201806040525081019061092491906113a6565b6000808363ffffffff1663ffffffff168152602001908152602001600020600701819055508063ffffffff167fd5800a28adcc400c413d414fbadebb49aa289b8aaa5db1e690dd23d17ff398e260405160405180910390a250565b604051806101200160405280600073ffffffffffffffffffffffffffffffffffffffff168152602001600073ffffffffffffffffffffffffffffffffffffffff168152602001600063ffffffff168152602001606081526020016060815260200160608152602001600060028111156109fb576109fa610d9e565b5b815260200160008152602001600081525090565b828054610a1b906112ee565b90600052602060002090601f016020900481019282610a3d5760008555610a84565b82601f10610a5657805160ff1916838001178555610a84565b82800160010185558215610a84579182015b82811115610a83578251825591602001919060010190610a68565b5b509050610a919190610af5565b5090565b828054828255906000526020600020908101928215610ae4579160200282015b82811115610ae3578251829080519060200190610ad3929190610a0f565b5091602001919060010190610ab5565b5b509050610af19190610b12565b5090565b5b80821115610b0e576000816000905550600101610af6565b5090565b5b80821115610b325760008181610b299190610b36565b50600101610b13565b5090565b508054610b42906112ee565b6000825580601f10610b545750610b73565b601f016020900490600052602060002090810190610b729190610af5565b5b50565b6000604051905090565b600080fd5b600080fd5b600063ffffffff82169050919050565b610ba381610b8a565b8114610bae57600080fd5b50565b600081359050610bc081610b9a565b92915050565b600060208284031215610bdc57610bdb610b80565b5b6000610bea84828501610bb1565b91505092915050565b600073ffffffffffffffffffffffffffffffffffffffff82169050919050565b6000610c1e82610bf3565b9050919050565b610c2e81610c13565b82525050565b610c3d81610b8a565b82525050565b600081519050919050565b600082825260208201905092915050565b60005b83811015610c7d578082015181840152602081019050610c62565b83811115610c8c576000848401525b50505050565b6000601f19601f8301169050919050565b6000610cae82610c43565b610cb88185610c4e565b9350610cc8818560208601610c5f565b610cd181610c92565b840191505092915050565b600081519050919050565b600082825260208201905092915050565b6000819050602082019050919050565b6000610d148383610ca3565b905092915050565b6000602082019050919050565b6000610d3482610cdc565b610d3e8185610ce7565b935083602082028501610d5085610cf8565b8060005b85811015610d8c5784840389528151610d6d8582610d08565b9450610d7883610d1c565b925060208a01995050600181019050610d54565b50829750879550505050505092915050565b7f4e487b7100000000000000000000000000000000000000000000000000000000600052602160045260246000fd5b60038110610dde57610ddd610d9e565b5b50565b6000819050610def82610dcd565b919050565b6000610dff82610de1565b9050919050565b610e0f81610df4565b82525050565b6000819050919050565b610e2881610e15565b82525050565b600061012083016000830151610e476000860182610c25565b506020830151610e5a6020860182610c25565b506040830151610e6d6040860182610c34565b5060608301518482036060860152610e858282610ca3565b91505060808301518482036080860152610e9f8282610ca3565b91505060a083015184820360a0860152610eb98282610d29565b91505060c0830151610ece60c0860182610e06565b5060e0830151610ee160e0860182610e1f565b50610100830151610ef6610100860182610e1f565b508091505092915050565b60006020820190508181036000830152610f1b8184610e2e565b905092915050565b610f2c81610c13565b8114610f3757600080fd5b50565b600081359050610f4981610f23565b92915050565b600080fd5b600080fd5b7f4e487b7100000000000000000000000000000000000000000000000000000000600052604160045260246000fd5b610f9182610c92565b810181811067ffffffffffffffff82111715610fb057610faf610f59565b5b80604052505050565b6000610fc3610b76565b9050610fcf8282610f88565b919050565b600067ffffffffffffffff821115610fef57610fee610f59565b5b610ff882610c92565b9050602081019050919050565b82818337600083830152505050565b600061102761102284610fd4565b610fb9565b90508281526020810184848401111561104357611042610f54565b5b61104e848285611005565b509392505050565b600082601f83011261106b5761106a610f4f565b5b813561107b848260208601611014565b91505092915050565b600067ffffffffffffffff82111561109f5761109e610f59565b5b602082029050602081019050919050565b600080fd5b60006110c86110c384611084565b610fb9565b905080838252602082019050602084028301858111156110eb576110ea6110b0565b5b835b8181101561113257803567ffffffffffffffff8111156111105761110f610f4f565b5b80860161111d8982611056565b855260208501945050506020810190506110ed565b5050509392505050565b600082601f83011261115157611150610f4f565b5b81356111618482602086016110b5565b91505092915050565b600080600080600060a0868803121561118657611185610b80565b5b600061119488828901610f3a565b95505060206111a588828901610bb1565b945050604086013567ffffffffffffffff8111156111c6576111c5610b85565b5b6111d288828901611056565b935050606086013567ffffffffffffffff8111156111f3576111f2610b85565b5b6111ff88828901611056565b925050608086013567ffffffffffffffff8111156112205761121f610b85565b5b61122c8882890161113c565b9150509295509295909350565b61124281610b8a565b82525050565b600060208201905061125d6000830184611239565b92915050565b6000806040838503121561127a57611279610b80565b5b600061128885828601610bb1565b925050602083013567ffffffffffffffff8111156112a9576112a8610b85565b5b6112b585828601611056565b9150509250929050565b7f4e487b7100000000000000000000000000000000000000000000000000000000600052602260045260246000fd5b6000600282049050600182168061130657607f821691505b602082108103611319576113186112bf565b5b50919050565b7f4e487b7100000000000000000000000000000000000000000000000000000000600052601160045260246000fd5b600061135982610b8a565b915063ffffffff820361136f5761136e61131f565b5b600182019050919050565b61138381610e15565b811461138e57600080fd5b50565b6000815190506113a08161137a565b92915050565b6000602082840312156113bc576113bb610b80565b5b60006113ca84828501611391565b91505092915050565b6113dc81610c13565b82525050565b600082825260208201905092915050565b60006113fe82610c43565b61140881856113e2565b9350611418818560208601610c5f565b61142181610c92565b840191505092915050565b600060808201905061144160008301876113d3565b61144e6020830186611239565b818103604083015261146081856113f3565b9050818103606083015261147481846113f3565b905095945050505050565b6000602082019050818103600083015261149981846113f3565b90509291505056fea2646970667358221220c987ab7e7a2bf590130aa0dc63c36ccb9b5f5f3229a3efa58fc1b2549325c33464736f6c634300080d0033",
  "immutableReferences": {},
  "source": "// SPDX-License-Identifier: MIT\r\npragma solidity >=0.8.0 <0.9.0;\r\n\r\nimport \"./STRANDCore.sol\";\r\n\r\ncontract STRANDElections {\r\n    enum ApplicationState { InProgress, Refused, Accepted }\r\n    struct Application {\r\n        address submittedBy;\r\n        address nominee;\r\n        uint32 forRole;\r\n        string title;\r\n        string text;\r\n        string[] contactAddresses;\r\n        ApplicationState state;\r\n        uint submissionTimestamp;\r\n        uint decisionTimestamp;\r\n    }\r\n    mapping(uint32 => Application) private _applications;\r\n    uint32 _applicationsCounter = 0;\r\n\r\n    event NewApplication(uint32 indexed applicationNumber, address user, uint32 role, string title, string text);\r\n    event ApplicationRefused(uint32 indexed applicationNumber, string reason);\r\n    event ApplicationAccepted(uint32 indexed applicationNumber);\r\n\r\n    function getApplication(uint32 applicationNumber) public view returns (Application memory) {\r\n        return _applications[applicationNumber];\r\n    }\r\n    function submitApplication(address user, uint32 role, string memory title, string memory text, string[] memory contactAddresses) public returns (uint32) {\r\n        _applicationsCounter++;\r\n        uint32 applicationNumber = _applicationsCounter;\r\n        _applications[applicationNumber] = Application(msg.sender, user, role, title, text, contactAddresses, ApplicationState.InProgress, STRANDCore.getCurrentTimestamp(), 0);\r\n        emit NewApplication(applicationNumber, user, role, title, text);\r\n        return applicationNumber;\r\n    }\r\n    function refuseApplication(uint32 applicationNumber, string memory reason) public {\r\n        _applications[applicationNumber].state = ApplicationState.Refused;\r\n        _applications[applicationNumber].decisionTimestamp = STRANDCore.getCurrentTimestamp();\r\n        emit ApplicationRefused(applicationNumber, reason);\r\n    }\r\n    function acceptApplication(uint32 applicationNumber) public {\r\n        _applications[applicationNumber].state = ApplicationState.Accepted;\r\n        _applications[applicationNumber].decisionTimestamp = STRANDCore.getCurrentTimestamp();\r\n        emit ApplicationAccepted(applicationNumber);\r\n    }\r\n}",
  "sourcePath": "d:\\BlockchainDev\\Source\\SolidityContracts\\contracts\\STRANDProduction\\STRANDElections.sol",
  "compiler": {
    "name": "solc",
    "version": "0.8.13+commit.abaa5c0e.Emscripten.clang"
  },
  "schemaVersion": "3.4.7",
  "updatedAt": "2022-05-10T09:45:46.321Z",
  "devdoc": {
    "kind": "dev",
    "methods": {},
    "version": 1
  },
  "userdoc": {
    "kind": "user",
    "methods": {},
    "version": 1
  }
}