{
  "contractName": "STRANDPolls",
  "abi": [
    {
      "anonymous": false,
      "inputs": [
        {
          "indexed": true,
          "internalType": "uint32",
          "name": "pollNumber",
          "type": "uint32"
        },
        {
          "indexed": false,
          "internalType": "uint32",
          "name": "pollType",
          "type": "uint32"
        },
        {
          "indexed": false,
          "internalType": "string",
          "name": "title",
          "type": "string"
        },
        {
          "indexed": false,
          "internalType": "string",
          "name": "text",
          "type": "string"
        },
        {
          "indexed": false,
          "internalType": "uint256",
          "name": "startDate",
          "type": "uint256"
        },
        {
          "indexed": false,
          "internalType": "uint256",
          "name": "endDate",
          "type": "uint256"
        }
      ],
      "name": "NewPoll",
      "type": "event"
    },
    {
      "inputs": [
        {
          "internalType": "uint32",
          "name": "pollNumber",
          "type": "uint32"
        }
      ],
      "name": "getPoll",
      "outputs": [
        {
          "components": [
            {
              "internalType": "uint32",
              "name": "pollNumber",
              "type": "uint32"
            },
            {
              "internalType": "address",
              "name": "createdBy",
              "type": "address"
            },
            {
              "internalType": "uint32",
              "name": "pollType",
              "type": "uint32"
            },
            {
              "internalType": "string",
              "name": "title",
              "type": "string"
            },
            {
              "internalType": "string",
              "name": "text",
              "type": "string"
            },
            {
              "internalType": "uint256",
              "name": "startDate",
              "type": "uint256"
            },
            {
              "internalType": "uint256",
              "name": "endDate",
              "type": "uint256"
            },
            {
              "internalType": "uint256",
              "name": "creationDate",
              "type": "uint256"
            }
          ],
          "internalType": "struct STRANDPolls.Poll",
          "name": "",
          "type": "tuple"
        }
      ],
      "stateMutability": "view",
      "type": "function"
    },
    {
      "inputs": [
        {
          "internalType": "uint32",
          "name": "pollType",
          "type": "uint32"
        },
        {
          "internalType": "string",
          "name": "title",
          "type": "string"
        },
        {
          "internalType": "string",
          "name": "text",
          "type": "string"
        },
        {
          "internalType": "uint256",
          "name": "startDate",
          "type": "uint256"
        },
        {
          "internalType": "uint256",
          "name": "endDate",
          "type": "uint256"
        }
      ],
      "name": "createNewPoll",
      "outputs": [
        {
          "internalType": "uint32",
          "name": "",
          "type": "uint32"
        }
      ],
      "stateMutability": "nonpayable",
      "type": "function"
    }
  ],
  "bytecode": "0x60806040526000600160006101000a81548163ffffffff021916908363ffffffff16021790555034801561003257600080fd5b50610cc8806100426000396000f3fe608060405234801561001057600080fd5b50600436106100365760003560e01c806317b934a81461003b578063a8038e361461006b575b600080fd5b61005560048036038101906100509190610695565b61009b565b604051610062919061087b565b60405180910390f35b610085600480360381019061008091906109fe565b6102b8565b6040516100929190610ac0565b60405180910390f35b6100a361053b565b6000808363ffffffff1663ffffffff168152602001908152602001600020604051806101000160405290816000820160009054906101000a900463ffffffff1663ffffffff1663ffffffff1681526020016000820160049054906101000a900473ffffffffffffffffffffffffffffffffffffffff1673ffffffffffffffffffffffffffffffffffffffff1673ffffffffffffffffffffffffffffffffffffffff1681526020016000820160189054906101000a900463ffffffff1663ffffffff1663ffffffff16815260200160018201805461017f90610b0a565b80601f01602080910402602001604051908101604052809291908181526020018280546101ab90610b0a565b80156101f85780601f106101cd576101008083540402835291602001916101f8565b820191906000526020600020905b8154815290600101906020018083116101db57829003601f168201915b5050505050815260200160028201805461021190610b0a565b80601f016020809104026020016040519081016040528092919081815260200182805461023d90610b0a565b801561028a5780601f1061025f5761010080835404028352916020019161028a565b820191906000526020600020905b81548152906001019060200180831161026d57829003601f168201915b5050505050815260200160038201548152602001600482015481526020016005820154815250509050919050565b60006001600081819054906101000a900463ffffffff16809291906102dc90610b6a565b91906101000a81548163ffffffff021916908363ffffffff160217905550506000600160009054906101000a900463ffffffff1690506040518061010001604052808263ffffffff1681526020013373ffffffffffffffffffffffffffffffffffffffff1681526020018863ffffffff16815260200187815260200186815260200185815260200184815260200173__STRANDCore____________________________636c9230db6040518163ffffffff1660e01b8152600401602060405180830381865af41580156103b3573d6000803e3d6000fd5b505050506040513d601f19601f820116820180604052508101906103d79190610bab565b8152506000808363ffffffff1663ffffffff16815260200190815260200160002060008201518160000160006101000a81548163ffffffff021916908363ffffffff16021790555060208201518160000160046101000a81548173ffffffffffffffffffffffffffffffffffffffff021916908373ffffffffffffffffffffffffffffffffffffffff16021790555060408201518160000160186101000a81548163ffffffff021916908363ffffffff16021790555060608201518160010190805190602001906104a99291906105a2565b5060808201518160020190805190602001906104c69291906105a2565b5060a0820151816003015560c0820151816004015560e082015181600501559050508063ffffffff167ff60c2e3b713d9b2bca14a8400cd049feba15f064ee529af83996ca78acbd6da78888888888604051610526959493929190610c31565b60405180910390a28091505095945050505050565b604051806101000160405280600063ffffffff168152602001600073ffffffffffffffffffffffffffffffffffffffff168152602001600063ffffffff16815260200160608152602001606081526020016000815260200160008152602001600081525090565b8280546105ae90610b0a565b90600052602060002090601f0160209004810192826105d05760008555610617565b82601f106105e957805160ff1916838001178555610617565b82800160010185558215610617579182015b828111156106165782518255916020019190600101906105fb565b5b5090506106249190610628565b5090565b5b80821115610641576000816000905550600101610629565b5090565b6000604051905090565b600080fd5b600080fd5b600063ffffffff82169050919050565b61067281610659565b811461067d57600080fd5b50565b60008135905061068f81610669565b92915050565b6000602082840312156106ab576106aa61064f565b5b60006106b984828501610680565b91505092915050565b6106cb81610659565b82525050565b600073ffffffffffffffffffffffffffffffffffffffff82169050919050565b60006106fc826106d1565b9050919050565b61070c816106f1565b82525050565b600081519050919050565b600082825260208201905092915050565b60005b8381101561074c578082015181840152602081019050610731565b8381111561075b576000848401525b50505050565b6000601f19601f8301169050919050565b600061077d82610712565b610787818561071d565b935061079781856020860161072e565b6107a081610761565b840191505092915050565b6000819050919050565b6107be816107ab565b82525050565b6000610100830160008301516107dd60008601826106c2565b5060208301516107f06020860182610703565b50604083015161080360408601826106c2565b506060830151848203606086015261081b8282610772565b915050608083015184820360808601526108358282610772565b91505060a083015161084a60a08601826107b5565b5060c083015161085d60c08601826107b5565b5060e083015161087060e08601826107b5565b508091505092915050565b6000602082019050818103600083015261089581846107c4565b905092915050565b600080fd5b600080fd5b7f4e487b7100000000000000000000000000000000000000000000000000000000600052604160045260246000fd5b6108df82610761565b810181811067ffffffffffffffff821117156108fe576108fd6108a7565b5b80604052505050565b6000610911610645565b905061091d82826108d6565b919050565b600067ffffffffffffffff82111561093d5761093c6108a7565b5b61094682610761565b9050602081019050919050565b82818337600083830152505050565b600061097561097084610922565b610907565b905082815260208101848484011115610991576109906108a2565b5b61099c848285610953565b509392505050565b600082601f8301126109b9576109b861089d565b5b81356109c9848260208601610962565b91505092915050565b6109db816107ab565b81146109e657600080fd5b50565b6000813590506109f8816109d2565b92915050565b600080600080600060a08688031215610a1a57610a1961064f565b5b6000610a2888828901610680565b955050602086013567ffffffffffffffff811115610a4957610a48610654565b5b610a55888289016109a4565b945050604086013567ffffffffffffffff811115610a7657610a75610654565b5b610a82888289016109a4565b9350506060610a93888289016109e9565b9250506080610aa4888289016109e9565b9150509295509295909350565b610aba81610659565b82525050565b6000602082019050610ad56000830184610ab1565b92915050565b7f4e487b7100000000000000000000000000000000000000000000000000000000600052602260045260246000fd5b60006002820490506001821680610b2257607f821691505b602082108103610b3557610b34610adb565b5b50919050565b7f4e487b7100000000000000000000000000000000000000000000000000000000600052601160045260246000fd5b6000610b7582610659565b915063ffffffff8203610b8b57610b8a610b3b565b5b600182019050919050565b600081519050610ba5816109d2565b92915050565b600060208284031215610bc157610bc061064f565b5b6000610bcf84828501610b96565b91505092915050565b600082825260208201905092915050565b6000610bf482610712565b610bfe8185610bd8565b9350610c0e81856020860161072e565b610c1781610761565b840191505092915050565b610c2b816107ab565b82525050565b600060a082019050610c466000830188610ab1565b8181036020830152610c588187610be9565b90508181036040830152610c6c8186610be9565b9050610c7b6060830185610c22565b610c886080830184610c22565b969550505050505056fea264697066735822122072d41a6be72f4988f7ed34a9e6374d8a32935e1e1f23933da22f9ebad301d32564736f6c634300080d0033",
  "immutableReferences": {},
  "source": "// SPDX-License-Identifier: MIT\r\npragma solidity >=0.8.0 <0.9.0;\r\n\r\nimport \"./STRANDCore.sol\";\r\n\r\ncontract STRANDPolls {\r\n    enum PollState { Planned, Started, Finished }\r\n    struct Poll {\r\n        uint32 pollNumber;\r\n        address createdBy;\r\n        uint32 pollType;\r\n        string title;\r\n        string text;\r\n        uint startDate;\r\n        uint endDate;\r\n        uint creationDate;\r\n    }\r\n    mapping(uint32 => Poll) private _polls;\r\n    uint32 private _pollCounter = 0;\r\n\r\n    event NewPoll(uint32 indexed pollNumber, uint32 pollType, string title, string text, uint startDate, uint endDate);\r\n\r\n    function getPoll(uint32 pollNumber) public view returns (Poll memory) {\r\n        return _polls[pollNumber];\r\n    }\r\n    function createNewPoll(uint32 pollType, string memory title, string memory text, uint startDate, uint endDate) public returns (uint32) {\r\n        _pollCounter++;\r\n        uint32 pollNumber = _pollCounter;\r\n        _polls[pollNumber] = Poll(pollNumber, msg.sender, pollType, title, text, startDate, endDate, STRANDCore.getCurrentTimestamp());\r\n        emit NewPoll(pollNumber, pollType, title, text, startDate, endDate);\r\n        return pollNumber;\r\n    }\r\n}",
  "sourcePath": "d:\\BlockchainDev\\Source\\SolidityContracts\\contracts\\STRANDProduction\\STRANDPolls.sol",
  "compiler": {
    "name": "solc",
    "version": "0.8.13+commit.abaa5c0e.Emscripten.clang"
  },
  "schemaVersion": "3.4.7",
  "updatedAt": "2022-05-10T09:45:46.394Z",
  "devdoc": {
    "kind": "dev",
    "methods": {},
    "version": 1
  },
  "userdoc": {
    "kind": "user",
    "methods": {},
    "version": 1
  }
}