{
  "contractName": "STRANDGovernmentalToken",
  "abi": [
    {
      "inputs": [
        {
          "internalType": "uint256",
          "name": "absoluteInitialSupply",
          "type": "uint256"
        },
        {
          "internalType": "uint8",
          "name": "decimals",
          "type": "uint8"
        },
        {
          "internalType": "bool",
          "name": "canBurn",
          "type": "bool"
        },
        {
          "internalType": "bool",
          "name": "canMint",
          "type": "bool"
        }
      ],
      "stateMutability": "nonpayable",
      "type": "constructor"
    },
    {
      "inputs": [],
      "name": "getRoles",
      "outputs": [
        {
          "internalType": "contract STRANDRoles",
          "name": "",
          "type": "address"
        }
      ],
      "stateMutability": "view",
      "type": "function"
    },
    {
      "inputs": [],
      "name": "getPolls",
      "outputs": [
        {
          "internalType": "contract STRANDPolls",
          "name": "",
          "type": "address"
        }
      ],
      "stateMutability": "view",
      "type": "function"
    }
  ],
  "bytecode": "0x6101206040523480156200001257600080fd5b50604051620029c8380380620029c88339818101604052810190620000389190620005cd565b3373ffffffffffffffffffffffffffffffffffffffff1660808173ffffffffffffffffffffffffffffffffffffffff16815250508360a081815250508260ff1660c08160ff168152505081151560e08115158152505080151561010081151581525050604051620000a990620004f6565b604051809103906000f080158015620000c6573d6000803e3d6000fd5b50600160006101000a81548173ffffffffffffffffffffffffffffffffffffffff021916908373ffffffffffffffffffffffffffffffffffffffff160217905550604051620001159062000504565b604051809103906000f08015801562000132573d6000803e3d6000fd5b506000806101000a81548173ffffffffffffffffffffffffffffffffffffffff021916908373ffffffffffffffffffffffffffffffffffffffff160217905550620001826200018c60201b60201c565b5050505062000a7f565b60008054906101000a900473ffffffffffffffffffffffffffffffffffffffff1673ffffffffffffffffffffffffffffffffffffffff166358d0aba660016040518263ffffffff1660e01b8152600401620001e8919062000711565b600060405180830381600087803b1580156200020357600080fd5b505af115801562000218573d6000803e3d6000fd5b5050505060008054906101000a900473ffffffffffffffffffffffffffffffffffffffff1673ffffffffffffffffffffffffffffffffffffffff166358d0aba660026040518263ffffffff1660e01b8152600401620002789190620007f8565b600060405180830381600087803b1580156200029357600080fd5b505af1158015620002a8573d6000803e3d6000fd5b5050505060008054906101000a900473ffffffffffffffffffffffffffffffffffffffff1673ffffffffffffffffffffffffffffffffffffffff166358d0aba660036040518263ffffffff1660e01b8152600401620003089190620008df565b600060405180830381600087803b1580156200032357600080fd5b505af115801562000338573d6000803e3d6000fd5b5050505060008054906101000a900473ffffffffffffffffffffffffffffffffffffffff1673ffffffffffffffffffffffffffffffffffffffff166358d0aba660046040518263ffffffff1660e01b8152600401620003989190620009c6565b600060405180830381600087803b158015620003b357600080fd5b505af1158015620003c8573d6000803e3d6000fd5b5050505060008054906101000a900473ffffffffffffffffffffffffffffffffffffffff1673ffffffffffffffffffffffffffffffffffffffff1663b2d5eae760805160016040518363ffffffff1660e01b81526004016200042c92919062000a52565b600060405180830381600087803b1580156200044757600080fd5b505af11580156200045c573d6000803e3d6000fd5b5050505060008054906101000a900473ffffffffffffffffffffffffffffffffffffffff1673ffffffffffffffffffffffffffffffffffffffff1663b2d5eae760805160026040518363ffffffff1660e01b8152600401620004c092919062000a52565b600060405180830381600087803b158015620004db57600080fd5b505af1158015620004f0573d6000803e3d6000fd5b50505050565b610d0a8062000eab83390190565b610e138062001bb583390190565b600080fd5b6000819050919050565b6200052c8162000517565b81146200053857600080fd5b50565b6000815190506200054c8162000521565b92915050565b600060ff82169050919050565b6200056a8162000552565b81146200057657600080fd5b50565b6000815190506200058a816200055f565b92915050565b60008115159050919050565b620005a78162000590565b8114620005b357600080fd5b50565b600081519050620005c7816200059c565b92915050565b60008060008060808587031215620005ea57620005e962000512565b5b6000620005fa878288016200053b565b94505060206200060d8782880162000579565b93505060406200062087828801620005b6565b92505060606200063387828801620005b6565b91505092959194509250565b600063ffffffff82169050919050565b6200065a816200063f565b82525050565b600082825260208201905092915050565b7f4f574e4552000000000000000000000000000000000000000000000000000000600082015250565b6000620006a960058362000660565b9150620006b68262000671565b602082019050919050565b7f436f6e7472616374206f776e6572730000000000000000000000000000000000600082015250565b6000620006f9600f8362000660565b91506200070682620006c1565b602082019050919050565b60006060820190506200072860008301846200064f565b81810360208301526200073b816200069a565b905081810360408301526200075081620006ea565b905092915050565b7f524f4c455f4d414e4147454d454e540000000000000000000000000000000000600082015250565b600062000790600f8362000660565b91506200079d8262000758565b602082019050919050565b7f526f6c65206d616e6167656d656e740000000000000000000000000000000000600082015250565b6000620007e0600f8362000660565b9150620007ed82620007a8565b602082019050919050565b60006060820190506200080f60008301846200064f565b8181036020830152620008228162000781565b905081810360408301526200083781620007d1565b905092915050565b7f454c454354494f4e5f434f4d4d49545445450000000000000000000000000000600082015250565b60006200087760128362000660565b915062000884826200083f565b602082019050919050565b7f456c656374696f6e20636f6d6d69747465650000000000000000000000000000600082015250565b6000620008c760128362000660565b9150620008d4826200088f565b602082019050919050565b6000606082019050620008f660008301846200064f565b8181036020830152620009098162000868565b905081810360408301526200091e81620008b8565b905092915050565b7f564f54494e475f434f4d4d495454454500000000000000000000000000000000600082015250565b60006200095e60108362000660565b91506200096b8262000926565b602082019050919050565b7f566f74696e6720636f6d6d697474656500000000000000000000000000000000600082015250565b6000620009ae60108362000660565b9150620009bb8262000976565b602082019050919050565b6000606082019050620009dd60008301846200064f565b8181036020830152620009f0816200094f565b9050818103604083015262000a05816200099f565b905092915050565b600073ffffffffffffffffffffffffffffffffffffffff82169050919050565b600062000a3a8262000a0d565b9050919050565b62000a4c8162000a2d565b82525050565b600060408201905062000a69600083018562000a41565b62000a7860208301846200064f565b9392505050565b60805160a05160c05160e051610100516103f662000ab560003960005050600050506000505060005050600050506103f66000f3fe608060405234801561001057600080fd5b50600436106100365760003560e01c8063120fe89b1461003b5780637106139814610059575b600080fd5b610043610077565b6040516100509190610296565b60405180910390f35b610061610148565b60405161006e91906102d2565b60405180910390f35b60008060009054906101000a900473ffffffffffffffffffffffffffffffffffffffff1673ffffffffffffffffffffffffffffffffffffffff166374de839c3360046040518363ffffffff1660e01b81526004016100d692919061032d565b602060405180830381865afa1580156100f3573d6000803e3d6000fd5b505050506040513d601f19601f820116820180604052508101906101179190610393565b61012057600080fd5b600160009054906101000a900473ffffffffffffffffffffffffffffffffffffffff16905090565b60008060009054906101000a900473ffffffffffffffffffffffffffffffffffffffff1673ffffffffffffffffffffffffffffffffffffffff166374de839c3360026040518363ffffffff1660e01b81526004016101a792919061032d565b602060405180830381865afa1580156101c4573d6000803e3d6000fd5b505050506040513d601f19601f820116820180604052508101906101e89190610393565b6101f157600080fd5b60008054906101000a900473ffffffffffffffffffffffffffffffffffffffff16905090565b600073ffffffffffffffffffffffffffffffffffffffff82169050919050565b6000819050919050565b600061025c61025761025284610217565b610237565b610217565b9050919050565b600061026e82610241565b9050919050565b600061028082610263565b9050919050565b61029081610275565b82525050565b60006020820190506102ab6000830184610287565b92915050565b60006102bc82610263565b9050919050565b6102cc816102b1565b82525050565b60006020820190506102e760008301846102c3565b92915050565b60006102f882610217565b9050919050565b610308816102ed565b82525050565b600063ffffffff82169050919050565b6103278161030e565b82525050565b600060408201905061034260008301856102ff565b61034f602083018461031e565b9392505050565b600080fd5b60008115159050919050565b6103708161035b565b811461037b57600080fd5b50565b60008151905061038d81610367565b92915050565b6000602082840312156103a9576103a8610356565b5b60006103b78482850161037e565b9150509291505056fea2646970667358221220eef1aa1600ae153737bf12c625af07cdb6245fce2e85d516d40052470e0fce1364736f6c634300080d003360806040526000600160006101000a81548163ffffffff021916908363ffffffff16021790555034801561003257600080fd5b50610cc8806100426000396000f3fe608060405234801561001057600080fd5b50600436106100365760003560e01c806317b934a81461003b578063a8038e361461006b575b600080fd5b61005560048036038101906100509190610695565b61009b565b604051610062919061087b565b60405180910390f35b610085600480360381019061008091906109fe565b6102b8565b6040516100929190610ac0565b60405180910390f35b6100a361053b565b6000808363ffffffff1663ffffffff168152602001908152602001600020604051806101000160405290816000820160009054906101000a900463ffffffff1663ffffffff1663ffffffff1681526020016000820160049054906101000a900473ffffffffffffffffffffffffffffffffffffffff1673ffffffffffffffffffffffffffffffffffffffff1673ffffffffffffffffffffffffffffffffffffffff1681526020016000820160189054906101000a900463ffffffff1663ffffffff1663ffffffff16815260200160018201805461017f90610b0a565b80601f01602080910402602001604051908101604052809291908181526020018280546101ab90610b0a565b80156101f85780601f106101cd576101008083540402835291602001916101f8565b820191906000526020600020905b8154815290600101906020018083116101db57829003601f168201915b5050505050815260200160028201805461021190610b0a565b80601f016020809104026020016040519081016040528092919081815260200182805461023d90610b0a565b801561028a5780601f1061025f5761010080835404028352916020019161028a565b820191906000526020600020905b81548152906001019060200180831161026d57829003601f168201915b5050505050815260200160038201548152602001600482015481526020016005820154815250509050919050565b60006001600081819054906101000a900463ffffffff16809291906102dc90610b6a565b91906101000a81548163ffffffff021916908363ffffffff160217905550506000600160009054906101000a900463ffffffff1690506040518061010001604052808263ffffffff1681526020013373ffffffffffffffffffffffffffffffffffffffff1681526020018863ffffffff16815260200187815260200186815260200185815260200184815260200173__STRANDCore____________________________636c9230db6040518163ffffffff1660e01b8152600401602060405180830381865af41580156103b3573d6000803e3d6000fd5b505050506040513d601f19601f820116820180604052508101906103d79190610bab565b8152506000808363ffffffff1663ffffffff16815260200190815260200160002060008201518160000160006101000a81548163ffffffff021916908363ffffffff16021790555060208201518160000160046101000a81548173ffffffffffffffffffffffffffffffffffffffff021916908373ffffffffffffffffffffffffffffffffffffffff16021790555060408201518160000160186101000a81548163ffffffff021916908363ffffffff16021790555060608201518160010190805190602001906104a99291906105a2565b5060808201518160020190805190602001906104c69291906105a2565b5060a0820151816003015560c0820151816004015560e082015181600501559050508063ffffffff167ff60c2e3b713d9b2bca14a8400cd049feba15f064ee529af83996ca78acbd6da78888888888604051610526959493929190610c31565b60405180910390a28091505095945050505050565b604051806101000160405280600063ffffffff168152602001600073ffffffffffffffffffffffffffffffffffffffff168152602001600063ffffffff16815260200160608152602001606081526020016000815260200160008152602001600081525090565b8280546105ae90610b0a565b90600052602060002090601f0160209004810192826105d05760008555610617565b82601f106105e957805160ff1916838001178555610617565b82800160010185558215610617579182015b828111156106165782518255916020019190600101906105fb565b5b5090506106249190610628565b5090565b5b80821115610641576000816000905550600101610629565b5090565b6000604051905090565b600080fd5b600080fd5b600063ffffffff82169050919050565b61067281610659565b811461067d57600080fd5b50565b60008135905061068f81610669565b92915050565b6000602082840312156106ab576106aa61064f565b5b60006106b984828501610680565b91505092915050565b6106cb81610659565b82525050565b600073ffffffffffffffffffffffffffffffffffffffff82169050919050565b60006106fc826106d1565b9050919050565b61070c816106f1565b82525050565b600081519050919050565b600082825260208201905092915050565b60005b8381101561074c578082015181840152602081019050610731565b8381111561075b576000848401525b50505050565b6000601f19601f8301169050919050565b600061077d82610712565b610787818561071d565b935061079781856020860161072e565b6107a081610761565b840191505092915050565b6000819050919050565b6107be816107ab565b82525050565b6000610100830160008301516107dd60008601826106c2565b5060208301516107f06020860182610703565b50604083015161080360408601826106c2565b506060830151848203606086015261081b8282610772565b915050608083015184820360808601526108358282610772565b91505060a083015161084a60a08601826107b5565b5060c083015161085d60c08601826107b5565b5060e083015161087060e08601826107b5565b508091505092915050565b6000602082019050818103600083015261089581846107c4565b905092915050565b600080fd5b600080fd5b7f4e487b7100000000000000000000000000000000000000000000000000000000600052604160045260246000fd5b6108df82610761565b810181811067ffffffffffffffff821117156108fe576108fd6108a7565b5b80604052505050565b6000610911610645565b905061091d82826108d6565b919050565b600067ffffffffffffffff82111561093d5761093c6108a7565b5b61094682610761565b9050602081019050919050565b82818337600083830152505050565b600061097561097084610922565b610907565b905082815260208101848484011115610991576109906108a2565b5b61099c848285610953565b509392505050565b600082601f8301126109b9576109b861089d565b5b81356109c9848260208601610962565b91505092915050565b6109db816107ab565b81146109e657600080fd5b50565b6000813590506109f8816109d2565b92915050565b600080600080600060a08688031215610a1a57610a1961064f565b5b6000610a2888828901610680565b955050602086013567ffffffffffffffff811115610a4957610a48610654565b5b610a55888289016109a4565b945050604086013567ffffffffffffffff811115610a7657610a75610654565b5b610a82888289016109a4565b9350506060610a93888289016109e9565b9250506080610aa4888289016109e9565b9150509295509295909350565b610aba81610659565b82525050565b6000602082019050610ad56000830184610ab1565b92915050565b7f4e487b7100000000000000000000000000000000000000000000000000000000600052602260045260246000fd5b60006002820490506001821680610b2257607f821691505b602082108103610b3557610b34610adb565b5b50919050565b7f4e487b7100000000000000000000000000000000000000000000000000000000600052601160045260246000fd5b6000610b7582610659565b915063ffffffff8203610b8b57610b8a610b3b565b5b600182019050919050565b600081519050610ba5816109d2565b92915050565b600060208284031215610bc157610bc061064f565b5b6000610bcf84828501610b96565b91505092915050565b600082825260208201905092915050565b6000610bf482610712565b610bfe8185610bd8565b9350610c0e81856020860161072e565b610c1781610761565b840191505092915050565b610c2b816107ab565b82525050565b600060a082019050610c466000830188610ab1565b8181036020830152610c588187610be9565b90508181036040830152610c6c8186610be9565b9050610c7b6060830185610c22565b610c886080830184610c22565b969550505050505056fea264697066735822122072d41a6be72f4988f7ed34a9e6374d8a32935e1e1f23933da22f9ebad301d32564736f6c634300080d003360806040526000600260006101000a81548163ffffffff021916908363ffffffff16021790555034801561003257600080fd5b50610dd1806100426000396000f3fe608060405234801561001057600080fd5b50600436106100625760003560e01c80632a9849611461006757806358d0aba61461008357806374de839c1461009f578063b0df0cf1146100cf578063b2d5eae7146100eb578063dd517fae14610107575b600080fd5b610081600480360381019061007c91906108b7565b610137565b005b61009d60048036038101906100989190610a2a565b610192565b005b6100b960048036038101906100b49190610b13565b61023a565b6040516100c69190610b6e565b60405180910390f35b6100e960048036038101906100e49190610b13565b61033e565b005b61010560048036038101906101009190610b13565b6105d6565b005b610121600480360381019061011c9190610b89565b610665565b60405161012e9190610c10565b60405180910390f35b6000808263ffffffff1663ffffffff168152602001908152602001600020600080820160006101000a81549063ffffffff021916905560018201600061017d91906106d4565b60028201600061018d91906106d4565b505050565b60405180606001604052808463ffffffff168152602001838152602001828152506000808563ffffffff1663ffffffff16815260200190815260200160002060008201518160000160006101000a81548163ffffffff021916908363ffffffff1602179055506020820151816001019080519060200190610214929190610714565b506040820151816002019080519060200190610231929190610714565b50905050505050565b6000806000905060005b600160008673ffffffffffffffffffffffffffffffffffffffff1673ffffffffffffffffffffffffffffffffffffffff16815260200190815260200160002080549050811015610333578363ffffffff16600160008773ffffffffffffffffffffffffffffffffffffffff1673ffffffffffffffffffffffffffffffffffffffff16815260200190815260200160002082815481106102e6576102e5610c2b565b5b90600052602060002090600891828204019190066004029054906101000a900463ffffffff1663ffffffff16036103205760019150610333565b808061032b90610c93565b915050610244565b508091505092915050565b600060018060008573ffffffffffffffffffffffffffffffffffffffff1673ffffffffffffffffffffffffffffffffffffffff1681526020019081526020016000208054905061038e9190610cdb565b67ffffffffffffffff8111156103a7576103a66108ff565b5b6040519080825280602002602001820160405280156103d55781602001602082028036833780820191505090505b5090506000805b600160008673ffffffffffffffffffffffffffffffffffffffff1673ffffffffffffffffffffffffffffffffffffffff1681526020019081526020016000208054905081101561057b578363ffffffff16600160008773ffffffffffffffffffffffffffffffffffffffff1673ffffffffffffffffffffffffffffffffffffffff168152602001908152602001600020828154811061047e5761047d610c2b565b5b90600052602060002090600891828204019190066004029054906101000a900463ffffffff1663ffffffff161461056857600160008673ffffffffffffffffffffffffffffffffffffffff1673ffffffffffffffffffffffffffffffffffffffff1681526020019081526020016000208181548110610500576104ff610c2b565b5b90600052602060002090600891828204019190066004029054906101000a900463ffffffff16838363ffffffff168151811061053f5761053e610c2b565b5b602002602001019063ffffffff16908163ffffffff1681525050818061056490610d0f565b9250505b808061057390610c93565b9150506103dc565b5081600160008673ffffffffffffffffffffffffffffffffffffffff1673ffffffffffffffffffffffffffffffffffffffff16815260200190815260200160002090805190602001906105cf92919061079a565b5050505050565b600160008373ffffffffffffffffffffffffffffffffffffffff1673ffffffffffffffffffffffffffffffffffffffff1681526020019081526020016000208190806001815401808255809150506001900390600052602060002090600891828204019190066004029091909190916101000a81548163ffffffff021916908363ffffffff1602179055505050565b60006002600081819054906101000a900463ffffffff168092919061068990610d0f565b91906101000a81548163ffffffff021916908363ffffffff160217905550506000600260009054906101000a900463ffffffff1690506106ca818585610192565b8091505092915050565b5080546106e090610d6a565b6000825580601f106106f25750610711565b601f016020900490600052602060002090810190610710919061084a565b5b50565b82805461072090610d6a565b90600052602060002090601f0160209004810192826107425760008555610789565b82601f1061075b57805160ff1916838001178555610789565b82800160010185558215610789579182015b8281111561078857825182559160200191906001019061076d565b5b509050610796919061084a565b5090565b828054828255906000526020600020906007016008900481019282156108395791602002820160005b8382111561080757835183826101000a81548163ffffffff021916908363ffffffff16021790555092602001926004016020816003010492830192600103026107c3565b80156108375782816101000a81549063ffffffff0219169055600401602081600301049283019260010302610807565b505b509050610846919061084a565b5090565b5b8082111561086357600081600090555060010161084b565b5090565b6000604051905090565b600080fd5b600080fd5b600063ffffffff82169050919050565b6108948161087b565b811461089f57600080fd5b50565b6000813590506108b18161088b565b92915050565b6000602082840312156108cd576108cc610871565b5b60006108db848285016108a2565b91505092915050565b600080fd5b600080fd5b6000601f19601f8301169050919050565b7f4e487b7100000000000000000000000000000000000000000000000000000000600052604160045260246000fd5b610937826108ee565b810181811067ffffffffffffffff82111715610956576109556108ff565b5b80604052505050565b6000610969610867565b9050610975828261092e565b919050565b600067ffffffffffffffff821115610995576109946108ff565b5b61099e826108ee565b9050602081019050919050565b82818337600083830152505050565b60006109cd6109c88461097a565b61095f565b9050828152602081018484840111156109e9576109e86108e9565b5b6109f48482856109ab565b509392505050565b600082601f830112610a1157610a106108e4565b5b8135610a218482602086016109ba565b91505092915050565b600080600060608486031215610a4357610a42610871565b5b6000610a51868287016108a2565b935050602084013567ffffffffffffffff811115610a7257610a71610876565b5b610a7e868287016109fc565b925050604084013567ffffffffffffffff811115610a9f57610a9e610876565b5b610aab868287016109fc565b9150509250925092565b600073ffffffffffffffffffffffffffffffffffffffff82169050919050565b6000610ae082610ab5565b9050919050565b610af081610ad5565b8114610afb57600080fd5b50565b600081359050610b0d81610ae7565b92915050565b60008060408385031215610b2a57610b29610871565b5b6000610b3885828601610afe565b9250506020610b49858286016108a2565b9150509250929050565b60008115159050919050565b610b6881610b53565b82525050565b6000602082019050610b836000830184610b5f565b92915050565b60008060408385031215610ba057610b9f610871565b5b600083013567ffffffffffffffff811115610bbe57610bbd610876565b5b610bca858286016109fc565b925050602083013567ffffffffffffffff811115610beb57610bea610876565b5b610bf7858286016109fc565b9150509250929050565b610c0a8161087b565b82525050565b6000602082019050610c256000830184610c01565b92915050565b7f4e487b7100000000000000000000000000000000000000000000000000000000600052603260045260246000fd5b7f4e487b7100000000000000000000000000000000000000000000000000000000600052601160045260246000fd5b6000819050919050565b6000610c9e82610c89565b91507fffffffffffffffffffffffffffffffffffffffffffffffffffffffffffffffff8203610cd057610ccf610c5a565b5b600182019050919050565b6000610ce682610c89565b9150610cf183610c89565b925082821015610d0457610d03610c5a565b5b828203905092915050565b6000610d1a8261087b565b915063ffffffff8203610d3057610d2f610c5a565b5b600182019050919050565b7f4e487b7100000000000000000000000000000000000000000000000000000000600052602260045260246000fd5b60006002820490506001821680610d8257607f821691505b602082108103610d9557610d94610d3b565b5b5091905056fea264697066735822122011274b0b04681b93e94df895fc3b0c1a943345d5dcb3de6b322ca7107c94315264736f6c634300080d0033",
  "immutableReferences": {},
  "source": "// SPDX-License-Identifier: MIT\r\npragma solidity >=0.8.0 <0.9.0;\r\n\r\nimport \"./STRANDPolls.sol\";\r\nimport \"./STRANDRoles.sol\";\r\n\r\ncontract STRANDGovernmentalToken {\r\n    uint32 constant ROLE_OWNER = 1;\r\n    uint32 constant ROLE_ROLE_MANAGEMENT = 2;\r\n    uint32 constant ROLE_ELECTION_COMMITTEE = 3;\r\n    uint32 constant ROLE_VOTING_COMMITTEE = 4;\r\n    address internal immutable ContractCreator;\r\n    uint256 internal immutable AbsoluteInitialSupply;\r\n    uint8 internal immutable Decimals;\r\n    bool internal immutable CanBurn;\r\n    bool internal immutable CanMint;\r\n    STRANDRoles private Roles;\r\n    STRANDPolls private Voting;\r\n    constructor(uint256 absoluteInitialSupply, uint8 decimals, bool canBurn, bool canMint) {\r\n        ContractCreator = msg.sender;\r\n        AbsoluteInitialSupply = absoluteInitialSupply;\r\n        Decimals = decimals;\r\n        CanBurn = canBurn;\r\n        CanMint = canMint;\r\n        Voting = new STRANDPolls();\r\n        Roles = new STRANDRoles();\r\n        setDefaultRoles();\r\n    }\r\n    function setDefaultRoles() private {\r\n        Roles.addRole(ROLE_OWNER, \"OWNER\", \"Contract owners\");\r\n        Roles.addRole(ROLE_ROLE_MANAGEMENT, \"ROLE_MANAGEMENT\", \"Role management\");\r\n        Roles.addRole(ROLE_ELECTION_COMMITTEE, \"ELECTION_COMMITTEE\", \"Election committee\");\r\n        Roles.addRole(ROLE_VOTING_COMMITTEE, \"VOTING_COMMITTEE\", \"Voting committee\");\r\n        Roles.assignRole(ContractCreator, ROLE_OWNER);\r\n        Roles.assignRole(ContractCreator, ROLE_ROLE_MANAGEMENT);\r\n    }\r\n    function initialSupply() internal view returns (uint256) {\r\n        return AbsoluteInitialSupply * 10 ** Decimals;\r\n    }\r\n\r\n    modifier roleOwnerCommittee{\r\n        require(Roles.hasRoleAssigned(msg.sender, ROLE_OWNER));\r\n        _;\r\n    }\r\n    modifier roleRoleManagement{\r\n        require(Roles.hasRoleAssigned(msg.sender, ROLE_ROLE_MANAGEMENT));\r\n        _;\r\n    }\r\n    modifier roleElectionCommittee{\r\n        require(Roles.hasRoleAssigned(msg.sender, ROLE_ELECTION_COMMITTEE));\r\n        _;\r\n    }\r\n    modifier roleVotingCommittee{\r\n        require(Roles.hasRoleAssigned(msg.sender, ROLE_VOTING_COMMITTEE));\r\n        _;\r\n    }\r\n\r\n    function getRoles() public view roleRoleManagement returns (STRANDRoles) {\r\n        return Roles;\r\n    }\r\n    function getPolls() public view roleVotingCommittee returns (STRANDPolls) {\r\n        return Voting;\r\n    }\r\n}",
  "sourcePath": "d:\\BlockchainDev\\Source\\SolidityContracts\\contracts\\STRANDProduction\\STRANDGovernmentalToken.sol",
  "compiler": {
    "name": "solc",
    "version": "0.8.13+commit.abaa5c0e.Emscripten.clang"
  },
  "schemaVersion": "3.4.7",
  "updatedAt": "2022-05-10T09:45:46.360Z",
  "devdoc": {
    "kind": "dev",
    "methods": {},
    "version": 1
  },
  "userdoc": {
    "kind": "user",
    "methods": {},
    "version": 1
  }
}